:020000040800F2
:100000007820002091270008E7010008E901000896
:10001000ED010008F1010008F501000800000000F2
:10002000000000000000000000000000F9010008CE
:10003000FB01000800000000FD010008CD400008A1
:10004000AB270008AB270008AB270008AB27000848
:10005000AB270008AB270008AB270008AB27000838
:10006000AB270008AB270008AB270008AB27000828
:10007000AB270008AB270008AB270008AB27000818
:10008000AB270008AB270008AB270008AB27000808
:10009000AB270008AB270008AB270008AB270008F8
:1000A000AB2700089D450008AB270008F94500086C
:1000B0000344000897440008AB270008AB2700085A
:1000C000AB270008AB270008AB270008AB270008C8
:1000D000AB270008294B0008AB2700083D4C00085F
:1000E000AB270008AB270008AB270008AB270008A8
:1000F000AB270008AB270008AB270008AB27000898
:10010000AB270008AB270008AB270008AB27000887
:10011000AB270008AB270008AB270008AB27000877
:10012000AB270008AB270008AB270008AB27000867
:1001300000F002F800F048F80AA090E8000C8244B1
:100140008344AAF10107DA4501D100F03DF8AFF28E
:10015000090EBAE80F0013F0010F18BFFB1A43F0A5
:1001600001031847C06C0000E06C0000103A24BF87
:1001700078C878C1FAD8520724BF30C830C144BF0C
:1001800004680C607047000000230024002500264E
:10019000103A28BF78C1FBD8520728BF30C148BFEA
:1001A0000B607047642905F05383002070471FB52A
:1001B00006F034F804000020002106F081F8401C0D
:1001C00060601FBD10B510BD05F0F0FF1146FFF7D0
:1001D000EEFF03F04CFD06F017F803B4FFF7F2FF53
:1001E00003BC06F05FF8704700BFFEE700BFFEE704
:1001F00000BFFEE700BFFEE7704770477047000092
:100200000CB50020019000906C48006840F48030EC
:100210006A49086000BF6948006800F40030009037
:100220000198401C0190009818B90198B0F5A06F92
:10023000F1D16248006800F4003010B10120009054
:1002400001E0002000900098012843D15C4800683C
:1002500040F010005A4908600846006820F003008A
:1002600008600846006840F0020008605348406893
:10027000524948600846406848600846406840F473
:10028000806048600846406820F47C10486008465A
:10029000406840F4E81048600846006840F080700C
:1002A000086000BF4548006800F000700028F9D0E1
:1002B0004248406820F003004049486008464068D2
:1002C00040F00200486000BF3C48406800F00C006D
:1002D0000828F9D10CBD10B5FFF792FF10BD10B57D
:1002E0003648006840F0010034490860084640681C
:1002F000344908403149486008460068324908409E
:100300002E4908600846006820F4802008600846EE
:10031000406820F4FE0048604FF41F008860FFF73B
:10032000DAFF4FF000602949086010BD10B50021C8
:1003300000200022214B5B6803F00C0121B104294D
:1003400006D0082928D107E0214B224C236027E062
:100350001F4B204C236023E0184B5B6803F47010A4
:10036000164B5B6803F48032022303EB904022B902
:10037000194B4343174C23600DE0104B5B6803F4AB
:10038000003323B1144B4343124C236003E0104B62
:100390004343104C236003E00D4B0E4C236000BF21
:1003A00000BF064B5B68C3F303130C4CE15C094BC5
:1003B0001B68CB40074C236010BD000000100240BA
:1003C000002002400000FFF8FFFFF6FE08ED00E00D
:1003D00000127A000000002000093D000400002007
:1003E00010B50446CC48844208D10121042000F015
:1003F0002DFB0021042000F029FB46E0C748844281
:1004000008D10121082000F021FB0021082000F084
:100410001DFB3AE0C248844208D10121102000F0BF
:1004200015FB0021102000F011FB2EE0BD48844296
:1004300008D10121202000F009FB0021202000F03C
:1004400005FB22E0B848844208D10121402000F099
:10045000FDFA0021402000F0F9FA16E0B34884428A
:1004600008D10121802000F0F1FA0021802000F065
:10047000EDFA0AE0AE48844207D10121801500F070
:10048000E5FA0021A01500F0E1FA10BD10B5012138
:10049000084600F0DBFA0021012000F0D7FA10BD79
:1004A0002DE9F0410246002500260020002300240B
:1004B000002791F803C00CF00F0591F803C00CF071
:1004C000100CBCF1000F03D091F802C04CEA0505F6
:1004D00091F800C0BCF1000F31D0146800202BE06F
:1004E0004FF0010C0CFA00F3B1F800C00CEA03065F
:1004F0009E4220D183004FF00F0C0CFA03F7BC434F
:1005000005FA03FC4CEA040491F803C0BCF1280F7F
:1005100006D14FF0010C0CFA00FCC2F814C00AE03E
:1005200091F803C0BCF1480F05D14FF0010C0CFA53
:1005300000FCC2F810C0401C0828D1D31460B1F8E8
:1005400000C0BCF1FF0F34DD546800202EE000F144
:10055000080C4FF0010808FA0CF3B1F800C00CEADF
:1005600003069E4221D183004FF00F0C0CFA03F7D3
:10057000BC4305FA03FC4CEA040491F803C0BCF147
:10058000280F05D100F1080C08FA0CF8C2F8148005
:1005900091F803C0BCF1480F07D100F1080C4FF0EF
:1005A000010808FA0CF8C2F81080401C0828CED3C5
:1005B0005460BDE8F0814FF6FF7101800221817027
:1005C0000421C17070470246002093680B400BB1B4
:1005D000012000E0002070470146886880B2704723
:1005E00002460020D3680B400BB1012000E0002040
:1005F00070470146C86880B2704701617047416129
:1006000070470AB1016100E041617047C160704705
:100610004FF480320A43826181618261826982691A
:10062000704702460020434B18684FF6807318400D
:1006300040EA021008433F4B186070473E49C861CA
:100640007047F0B50A46002300240021002500F081
:100650000046B6F1004F02D1364EF16901E0354E49
:100660007168C0F3034583B200F44016B6F5401F2D
:1006700008D121F070612F4E766826F070662D4FFC
:100680007E6012E000F48016B6F5801F06D10326C6
:1006900006FA05F4A14341F0706106E0460D36010B
:1006A00003FA06F6B14341F0706122B1460D3601FE
:1006B00003FA06F6314300F00046B6F1004F02D1CE
:1006C0001C4EF16101E01B4E7160F0BD30B500229F
:1006D0008B071C0F0F2303FA04F2164B08338C1000
:1006E00053F824309343134C08348D1044F82530CC
:1006F00023468C1053F824308C07240F00FA04F49E
:1007000023430C4C08348D1044F8253030BD0A4981
:10071000DC3108607047000000080140000C014017
:10072000001001400014014000180140001C01406D
:10073000002001400000014000002042DF48006826
:1007400040F00100DD49086008464068DC49084087
:10075000DA49486008460068DA490840D749086025
:100760000846006820F4802008600846406820F4AD
:10077000FE0048604FF41F0088607047CF49096849
:1007800021F48031CD4A11601146096821F480219D
:100790001160B0F5803F03D0B0F5802F0ED106E098
:1007A000C649096841F48031C44A116007E0C34971
:1007B000096841F4A021C14A116000E000BF00BFF8
:1007C000704710B501460022002300204A11012A7B
:1007D00002D1BA4C236806E0022A02D1B74C236A40
:1007E00001E0B64C636A01F01F02012494401C40F2
:1007F0000CB1012000E0002010BD38B500200090B1
:100800000024002500BF3120FFF7DBFF05460098DC
:10081000401C00900098B0F5A06F01D0002DF2D0E0
:100820003120FFF7CEFF08B1012400E0002420466C
:1008300038BD01460020A14A106820F0F80040EAC7
:10084000C10010607047A049086070470246002050
:100850009A4B586820F47C1042EA01031843974BE6
:100860005860704798490866704701460020934ACF
:10087000506820F003000843506070478F4840687C
:1008800000F00C007047014600208C4A506820F0B0
:10089000F00008435060704701460020874A5068C6
:1008A00020F4E06008435060704701460020834A0E
:1008B000506820F4605040EAC1005060704729B190
:1008C0007E4A527A02437D4B5A7204E07B4A527A46
:1008D00082437A4B5A7270477B49D831086070471F
:1008E00001460020754A506820F44040084350609B
:1008F00070470021714A20321170704A82F820102E
:10090000012802D004280AD104E001216B4A2032D8
:10091000117005E00521694A2032117000E000BF26
:1009200000BF70476949086070476449096A01431C
:10093000624A11627047654944390860704730B5B2
:1009400000210022002400235C4D6D6805F00C019D
:1009500021B1042905D0082923D105E05C4D0560AB
:1009600022E05B4D05601FE0544D6D6805F4701288
:10097000524D6D6805F48034022505EB92421CB996
:10098000544D554305600BE04C4D6D6805F4003542
:100990001DB1504D5543056002E04D4D5543056076
:1009A00002E04B4D056000BF00BF444D6D6805F08F
:1009B000F0010909484D6B5C0568DD4045603F4D1D
:1009C0006D6805F4E061090A434D6B5C4568DD40E4
:1009D00085603A4D6D6805F46051C90A3E4D6B5C07
:1009E0004568DD40C560354D6D6805F44041890BB3
:1009F0003A4D6B5CC568B5FBF3F5056130BD29B1B7
:100A00002E4A526902432D4B5A6104E02B4A526927
:100A100082432A4B5A61704729B1284A926902439E
:100A2000264B9A6104E0254A92698243234B9A61DE
:100A3000704729B1214AD2690243204BDA6104E0B0
:100A40001E4AD26982431D4BDA61704729B11B4AA5
:100A5000D2680243194BDA6004E0184AD268824334
:100A6000164BDA60704729B1144A12690243134BDE
:100A70001A6104E0114A12698243104B1A617047EF
:100A800012494039086070470F49C86470470B49E4
:100A9000C87170470948406A40F080700749486251
:100AA000704701460020054A92680A400AB10120B9
:100AB00000E0002070470149887270470010024032
:100AC0000000FFF8FFFFF6FE0000424280044242B1
:100AD00000127A0000093D001400002024000020CC
:100AE00031490143314A1160704770B5002100233C
:100AF0000F22C47804B32D4C246804F4E064C4F5D8
:100B0000E064210AC1F10403CA40447804FA03F105
:100B10008478144021430901254C0678A1550478B6
:100B200004F01F050124AC4005786D11AD0005F1FE
:100B3000E025C5F8004109E0047804F01F05012410
:100B4000AC401C4D0678761145F8264070BD1A4A17
:100B50000A400243154B1B1F1A60704739B1134AF4
:100B6000121D12680243114B1B1D1A6006E00F4A4A
:100B7000121D126882430D4B1B1D1A60704704281A
:100B800008D14FF0E021096941F004014FF0E02263
:100B9000116107E04FF0E021096921F004014FF0F5
:100BA000E0221161704700000000FA050CED00E042
:100BB00000E400E080E100E080FFFF1F10B5044684
:100BC000FB48844209D101218803FFF73FFF002140
:100BD0004FF48040FFF73AFF32E0F648844209D1F3
:100BE00001214804FFF73FFF00214FF40030FFF7D9
:100BF0003AFF25E0F048844209D101218804FFF73B
:100C000032FF00214FF48020FFF72DFF18E0EB4862
:100C1000844209D10121C804FFF725FF00214FF4C8
:100C20000020FFF720FF0BE0E548844208D10121B6
:100C30000805FFF718FF00214FF48010FFF713FF9E
:100C400010BD2DE9F04786B005460E460024A246A9
:100C500000BFA1460027B08900B100BF2F462C8AF3
:100C60004CF6FF700440F08804432C82AC894EF6A9
:100C7000F3100440B0883189084371890843044364
:100C8000AC81AC8A4FF6FF400440B0890443AC828B
:100C900001A8FFF754FEC648874202D1DDF810A034
:100CA00001E0DDF80CA0A88900F4004040B10AEB97
:100CB000CA0000EB0A1031684900B0FBF1F807E008
:100CC0000AEBCA0000EB0A1031688900B0FBF1F8AA
:100CD0006420B8FBF0F004012009642101FB1089B5
:100CE000A88900F4004040B1322000EBC900B0FBFD
:100CF000F1F000F00700044308E0322000EB091097
:100D00006421B0FBF1F000F00F0004432C8106B029
:100D1000BDE8F0874FF41651016000218180C18049
:100D200001810C21418100218181704710B502466B
:100D30000020108A4FF2FF0318400B884C88234391
:100D40008C882343CC8823431843108210BD002194
:100D5000018041808180C180704721B1828942F445
:100D60000052828104E082894DF6FF731A4082812D
:100D70007047F0B50346002400260025002040F609
:100D80006A17B94200D100BF1846C1F3421401F0FE
:100D90001F06012707FA06F5012C01D10C3004E0EB
:100DA000022C01D1103000E014301AB107682F4333
:100DB000076002E00768AF430760F0BD1AB1838A9D
:100DC0000B43838202E0838A8B4383827047028ACB
:100DD0004FF6F0731A400282028A0A430282704779
:100DE00082894FF2FF731A40828182890A4382818D
:100DF000704721B1828942F00202828104E0828937
:100E00004FF6FD731A4082817047028A4FF6DF73F6
:100E10001A400282028A0A430282704721B1028A82
:100E200042F48042028204E0028A4BF6FF731A40C9
:100E300002827047C1F308028280704701468888A9
:100E4000C0F308007047818941F00101818170473A
:100E5000028BD2B20283028B42EA012202837047E4
:100E6000028B02F47F420283028B0A4302837047A3
:100E700021B1828A42F02002828204E0828A4FF607
:100E8000DF731A408282704721B1828A42F01002D9
:100E9000828204E0828A4FF6EF731A4082827047A2
:100EA00021B1828A42F00802828204E0828A4FF6EF
:100EB000F7731A408282704721B1828942F400425E
:100EC000828103E08289C2F30E028281704721B1E0
:100ED000828A42F40062828204E0828A4FF2FF73C7
:100EE0001A4082827047828A4FF6FB731A408282D0
:100EF000828A0A438282704721B1828A42F00202CA
:100F0000828204E0828A4FF6FD731A408282704723
:100F100002460020B1F5007F00D100BF13880B40CE
:100F20000BB1012000E00020704701F40072B2F51F
:100F3000007F00D100BFCA430280704770B50246EF
:100F4000002400230025002040F66A16B14200D19B
:100F500000BFC1F3421501F01F03012606FA03F397
:100F6000012D02D19689334006E0022D02D1168A66
:100F7000334001E0968A33400C12012606FA04F44D
:100F80001688344013B10CB1012000E0002070BD80
:100F900010B50022002340F66A14A14200D100BF20
:100FA0000A1201249440A3B2DC43048010BD000067
:100FB000003801400044004000480040004C004020
:100FC0000050004010B50446FE48844208D101217B
:100FD000C014FFF73BFD0021E014FFF737FDC4E02C
:100FE000B4F1804F08D101210846FFF73CFD0021F4
:100FF0000120FFF738FDB8E0F348844208D1012111
:101000000220FFF730FD00210220FFF72CFDACE0AD
:10101000EE48844208D101210420FFF724FD00217D
:101020000420FFF720FDA0E0E948844208D1012117
:101030000820FFF718FD00210820FFF714FD94E0B9
:10104000E448844208D101211020FFF70CFD002163
:101050001020FFF708FD88E0DF48844208D1012115
:101060002020FFF700FD00212020FFF7FCFC7CE0A2
:10107000DA48844208D101214014FFF7E7FC00213F
:101080006014FFF7E3FC70E0D548844209D10121E8
:10109000C804FFF7DBFC00214FF40020FFF7D6FC6B
:1010A00063E0D048844209D101210805FFF7CEFC56
:1010B00000214FF48010FFF7C9FC56E0CA48844273
:1010C00009D101214805FFF7C1FC00214FF40010B0
:1010D000FFF7BCFC49E0C548844208D1012140200B
:1010E000FFF7C1FC00214020FFF7BDFC3DE0C048F8
:1010F000844208D101218020FFF7B5FC0021802027
:10110000FFF7B1FC31E0BB48844208D101218015D2
:10111000FFF7A9FC0021A015FFF7A5FC25E0B648C4
:10112000844209D101210804FFF790FC00214FF40B
:101130008030FFF78BFC18E0B048844209D10121D0
:101140004804FFF783FC00214FF40030FFF77EFCDA
:101150000BE0AB48844208D101218804FFF776FCFC
:1011600000214FF48020FFF771FC10BD002202889F
:10117000944B98420ED0994B98420BD0B0F1804FCF
:1011800008D0914B984205D0904B984202D0904B9A
:10119000984204D14FF68F731A404B881A438D4BF7
:1011A000984207D08C4B984204D04FF6FF431A4028
:1011B000CB881A4302808B8883850B880385814BFB
:1011C00098420BD0854B984208D08B4B984205D063
:1011D0008A4B984202D08A4B984201D10B7A0386FF
:1011E00001238382704770B5002400220023058C00
:1011F0004FF6FE7635400584028C8388048B4FF6CB
:101200008F752C40B51E2C400D882C43751E2A402E
:101210000D892A434D882A436A4DA8420BD06F4D51
:10122000A84208D0744DA84205D0744DA84202D0FF
:10123000734DA84213D14FF6F7752A404D892A43C2
:101240004FF6FB752A408D882A434FF6FF652B40E9
:101250004FF6FF552B408D892B43CD892B4383803F
:101260000483CD888586028470BD70B50024002279
:101270000023058C4FF6EF7635400584028C838879
:10128000048B48F6FF752C404FF6FF452C400D8827
:101290004FF6FF7606EA05252C434FF6DF752A4008
:1012A0000D8906EA05152A434D8806EA05152A43E5
:1012B000444DA84202D0494DA8421DD14FF67F753A
:1012C0002A404D894FF6FF7606EA05152A434FF668
:1012D000BF752A408D8806EA05152A434FF6FF356B
:1012E0002B404FF2FF752B408D8906EA85052B4375
:1012F000CD8906EA85052B4383800483CD88058745
:10130000028470BD70B5002400220023058C4FF6C6
:10131000FF6635400584028C8388848B4FF68F7579
:101320002C404FF6FC752C400D882C434FF6FF5592
:101330002A400D894FF6FF7606EA05252A434D8897
:1013400006EA05252A431F4DA84202D0234DA84294
:101350001DD14FF2FF752A404D894FF6FF7606EA00
:1013600005252A434FF6FF352A408D8806EA0525D4
:101370002A434EF6FF752B404DF6FF752B408D89A5
:1013800006EA05152B43CD8906EA05152B43838014
:101390008483CD888587028470BD70B500220023C8
:1013A0000024058C4EF6FF7635400584038C848836
:1013B000828B48F6FF752A404FF6FF452A400D887C
:1013C00020E00000002C0140000400400008004024
:1013D000000C0040001000400014004000340140A8
:1013E000004C0140005001400054014000180040F2
:1013F000001C00400020004000400140004401402B
:10140000004801404FF6FF7606EA05252A434DF6CF
:10141000FF752B400D8906EA05352B434D8806EAFA
:1014200005352B43FA4DA84202D0FA4DA84208D107
:101430004BF6FF752C408D894FF6FF7606EA851531
:101440002C4384808283CD88A0F84050038470BDF3
:10145000828B4FF2FF331A408283828B4FF6FF73E9
:1014600003EA01231A4382837047F0B50C46154600
:10147000002200210026078C4EF6FF7C07EA0C07AD
:101480000784828B018C4FF6FF7707EA043640F61B
:10149000FF473A404FF6FF7707EA05273A434FF6F2
:1014A000FF7707EA03373A43D94FB8420ED0D94FF6
:1014B000B8420BD0B0F1804F08D0D74FB84205D01A
:1014C000D64FB84202D0D64FB84206D14DF6FF777C
:1014D000394046F48057394305E047F6FF57394015
:1014E00044F48057394382830184F0BD828B4FF6E8
:1014F000F3731A408283828B0A4382837047F0B56C
:101500000C461546002200210026078C4FF6FF6C82
:1015100007EA0C070784828B018C4FF6FF7707EAF6
:1015200004264FF60C773A404FF6FF7707EA031789
:101530002F433A43B64FB8420ED0B64FB8420BD005
:10154000B0F1804F08D0B44FB84205D0B34FB84285
:1015500002D0B34FB84206D14FF6FF57394046F498
:101560008077394305E04FF2FF57394044F48077E4
:10157000394382830184F0BD028B4FF2FF331A405E
:101580000283028B4FF6FF7303EA01231A4302839F
:101590007047F0B50C461546002200210026078C46
:1015A0004FF6EF7C07EA0C070784028B018C4FF69D
:1015B000FF7707EA041640F6FF473A404FF6FF77F9
:1015C00007EA03373A434FF6FF7707EA05273A431E
:1015D0008F4FB8420ED08F4FB8420BD0B0F1804F32
:1015E00008D08D4FB84205D08C4FB84202D08C4FF6
:1015F000B84206D14FF6DF77394046F0100739433D
:1016000005E04FF65F77394044F010073943028315
:101610000184F0BD028B4FF6F3731A400283028BF4
:101620000A4302837047F0B50C461546002200219C
:10163000068C4FF6FE773E400684028B018C4FF6F7
:101640000C7632407E1C06EA03162E433243704E5F
:10165000B0420ED06F4EB0420BD0B0F1804F08D0E8
:101660006D4EB04205D06D4EB04202D06C4EB042CD
:1016700006D14FF6FD76314044F00106314305E0D6
:101680004FF6F576314044F0010631430283018480
:10169000F0BD70B505460C465D4885420ED05D48EC
:1016A00085420BD0B5F1804F08D05B48854205D00C
:1016B0005A48854202D05A48854200D100E000BF16
:1016C000208850B92389A28861882846FFF7ABFF9C
:1016D000E1882846FFF79EFF25E0208804280AD1EC
:1016E0002389A28861882846FFF753FFE1882846AE
:1016F000FFF742FF17E0208808280AD12389A28833
:1017000061882846FFF7FBFEE1882846FFF7EEFEDA
:1017100009E02389A28861882846FFF7A6FEE188B0
:101720002846FFF795FE70BD2DE9F04105460C46B1
:1017300000260127608808B9022600E00026A0885C
:10174000012801D1022700E001272088A0B92389C0
:10175000A28861882846FFF766FFE1882846FFF7E0
:1017600059FF23893A4631462846FFF712FFE188A0
:101770002846FFF701FF13E02389A28861882846E5
:10178000FFF707FFE1882846FFF7F6FE23893A4670
:1017900031462846FFF747FFE1882846FFF73AFF22
:1017A000BDE8F0810A884B881A438B881A43CB889E
:1017B0001A430B891A434B891A438B891A43A0F8A1
:1017C000442070474FF6FF71818000210180C18065
:1017D0004180017270470021018041808180C18079
:1017E000018141818181C181704700210180418057
:1017F000012181800021C180018170470021018089
:1018000041808180C18001814181818170470000D8
:10181000002C01400034014000040040000800405A
:10182000000C004021B1028842F00102028004E075
:1018300002884FF6FE731A400280704731B1B0F84B
:10184000442042F40042A0F8442005E0B0F84420CF
:10185000C2F30E02A0F8442070471AB183890B43EB
:10186000838102E083898B43838170478182704743
:1018700041EA0203A0F8483070471AB183890B434C
:10188000838102E083898B438381704701894FF60E
:10189000F8721140018170470A46002101894FF614
:1018A0008F73194011430181704730B504460D46CE
:1018B00029462046FFF7F0FF208940F007002081ED
:1018C00030BD2DE9F04104460D4616461F46602DF9
:1018D00006D13B46012231462046FFF75AFE05E07D
:1018E0003B46012231462046FFF79DFE2946204611
:1018F000FFF7D2FF208940F007002081BDE8F0818A
:1019000030B50C4600210189C9B24FF6FF7505EAD2
:101910000325154325432943018130BD2DE9F041BD
:1019200005460E4617469846002443463A46314639
:101930002846FFF7E5FF2C894FF6F870044044F085
:1019400007044FF68F70044044F070042C81BDE80A
:10195000F081F0B504460D4616461F463B4632461A
:1019600029462046FFF7CCFF208940F480402081A3
:10197000F0BD0185828270470A46002101884FF63A
:101980008F731940114301807047F0B50C4615461E
:101990001E460021002200230189028B038C4FF692
:1019A000F877394021434FF6FC473A4040F201179F
:1019B0003A434FF6DD773B404FF6FF7707EA0617CD
:1019C0002F433B43018102830384F0BD0A4600217B
:1019D000018B4FF68F7319401143018370470A46FC
:1019E0000021018B48F6FF7319404FF6FF7303EA9D
:1019F00002231943018370470A460021818B4FF669
:101A00008F7319401143818370470A460021818BEF
:101A100048F6FF7319404FF6FF7303EA0223194398
:101A20008183704721B1028842F08002028004E085
:101A300002884FF67F731A400280704721B1828876
:101A400042F00402828004E082884FF6FB731A4061
:101A50008280704721B1828842F00802828004E0CF
:101A600082884FF6F7731A408280704721B18288CE
:101A700042F00102828004E082884FF6FE731A4031
:101A8000828070470A460021018B4FF6F773194098
:101A90001143018370470A460021018B4FF2FF7307
:101AA00019404FF6FF7303EA02231943018370477D
:101AB0000A460021818B4FF6F77319401143818349
:101AC00070470A460021818B4FF2FF7319404FF691
:101AD000FF7303EA02231943818370470A460021FA
:101AE000018B4FF6FB7319401143018370470A467F
:101AF0000021018B4FF6FF3319404FF6FF7303EAC5
:101B000002231943018370470A460021818B4FF657
:101B1000FB7319401143818370470A460021818B72
:101B20004FF6FF3319404FF6FF7303EA02231943C0
:101B3000818370470A460021018B4FF67F7319405D
:101B40001143018370470A460021018BC1F30E0146
:101B50004FF6FF7303EA02231943018370470A46D5
:101B60000021818B4FF67F731940114381837047A9
:101B70000A460021818BC1F30E014FF6FF7303EA81
:101B800002231943818370470A460021018C4FF6D6
:101B9000FD7319401143018470470A460021018CEE
:101BA0004FF6F77319401143018470470A4600212C
:101BB000018C4FF6DF7319404FF6FF7303EA0213EF
:101BC0001943018470470A460021018C4FF67F7348
:101BD00019404FF6FF7303EA02131943018470475B
:101BE0000A460021018C4FF6FF5319404FF6FF7350
:101BF00003EA02231943018470470A460021018C3D
:101C00004FF2FF7319404FF6FF7303EA02231943A3
:101C1000018470470A460021018C4DF6FF7319407C
:101C20004FF6FF7303EA023319430184704730B55E
:101C3000002301248C40A3B2048C9C430484048CB4
:101C400002FA01F5ADB22C43048430BD30B5002357
:101C500004248C40A3B2048C9C430484048C02FAB8
:101C600001F5ADB22C43048430BD70B503460020AD
:101C700000241846183001258D40ACB21D8CA543B8
:101C80001D8409B1082909D100EB6100056825F020
:101C9000700505600568154305600EE00D1FC5F36E
:101CA0004E052844056825F4E045056005684FF6B3
:101CB000FF7606EA02263543056070BD21B1028831
:101CC00042F00202028004E002884FF6FD731A40DF
:101CD0000280704721B1028842F00402028004E0D1
:101CE00002884FF6FB731A400280704721B1828848
:101CF00042F08002828004E082884FF67F731A40AF
:101D00008280704702884FF6F7731A40028002887B
:101D10000A430280704782884FF68F731A40828090
:101D200082880A438280704702894FF6F8731A400E
:101D3000028102890A430281704702894FF67F734C
:101D40001A40028102890A430281704781847047E8
:101D5000818570478186704701877047818770470A
:101D6000A0F84010704702884FF6FF431A400280E7
:101D700002880A43028070470146888E70470146F8
:101D8000088F70470146888F70470146B1F84000C0
:101D900070470146888C70470146088D704702469F
:101DA0000020138A0B400BB1012000E00020704797
:101DB000CA430282704730B5024600200023002447
:101DC000158A05EA0103958905EA010413B10CB1EE
:101DD000012000E0002030BDCA43028270470000AD
:101DE00010B50446BE48844208D101218014FEF794
:101DF0002DFE0021A014FEF729FE16E0B94884420A
:101E000008D101210014FEF72EFE00212014FEF758
:101E10002AFE0AE0B448844207D10121C013FEF72C
:101E200022FE0021E013FEF71EFE10BD10B50022B9
:101E3000028802F441520B884C8823438C88234348
:101E4000CC8823430C8923434C8923438C89234327
:101E5000CC8923431A430280838B4FF2FF742340C3
:101E600083830B8A038210BD2DE9F04F85B00546B0
:101E70000C464FF0000902274FF000084FF0010B0D
:101E80000026B246A88B4FF240010840A8830220EA
:101E90002884B5F81C90A068022801D100BF38E062
:101EA000A08810B94FF0010B01E04FF0020B8D48F4
:101EB000854200D100E000BF6846FEF740FDDDF836
:101EC00000A0E088B0F5007F0AD14FEA1A2000EBAD
:101ED00080004000A168B0FBF1F0401D86B20BE02D
:101EE0004FEA4B10BAFBF0F000EB80004000A16815
:101EF000B0FBF1F0401D86B20A20B6FBF0F606F00A
:101F00000108A6EB0800C0F34F074FF6FF7000EA88
:101F10000828022F01DBFF2F02DD02274FF0000807
:101F2000E08840EA080038432884A088A189084353
:101F3000618808432188084340F4006040EA0909A9
:101F4000A5F81C9005B0BDE8F08F0021018041800C
:101F50008180C180018141818181C181072101820C
:101F600070470021018041808180C1800221816011
:101F700000218181704721B1028842F04002028035
:101F800004E002884FF6BF731A400280704721B107
:101F9000828B42F48062828304E0828B4FF6FF33AF
:101FA0001A408283704730B5002400230C110125AC
:101FB000A540ABB21AB185881D43858002E08588B3
:101FC0009D43858030BD1AB183880B43838002E036
:101FD00083888B438380704781817047014688895D
:101FE00070474FF6FF62914204D0028842F480723B
:101FF000028004E002884FF6FF631A4002807047B7
:1020000021B1828842F00402828004E082884FF687
:10201000FB731A408280704702884FF2FF731A40A8
:10202000028002880A4302807047018841F480518F
:102030000180704721B1028842F40052028004E01E
:1020400002884DF6FF731A40028070470246002056
:10205000012901D0108B00E0908A70470146088A60
:102060007047B1F5804F04D1028842F4804202806B
:1020700004E002884BF6FF731A4002807047024664
:10208000002013890B400BB1012000E000207047B5
:10209000CA4302817047F0B50246002000240023A5
:1020A000002501F00F070126BE40B4B20B11012636
:1020B0009E40B3B2968806EA03051689264016B1FB
:1020C0000DB1012000E00020F0BD10B5002201F0AC
:1020D0000F040123A3409AB2D343038110BD000033
:1020E0000030014000380040003C004010B504467C
:1020F000FA48844208D101214015FEF7A7FC0021CF
:102100006015FEF7A3FC17E0F548844208D10121D1
:102110000015FEF79BFC00212015FEF797FC0BE055
:10212000F048844208D10121C803FEF78FFC00214A
:102130004FF40040FEF78AFC10BD30B50246002087
:1021400000235068E84C20400D790C6844EA0524CF
:10215000204350609068E54C2040D1E902542C4364
:102160004D7944EA450420439060D06A20F4700021
:102170000C7C641EE4B2234340EA0350D06230BDBD
:1021800000210160017141718160C1600121017410
:10219000704721B1826842F00102826003E08268E8
:1021A00022F001028260704721B1826842F480729D
:1021B000826003E0826822F480728260704710B50A
:1021C0000023CBB21AB144681C43446002E0446867
:1021D0009C43446010BD816841F0080181607047F4
:1021E000014600208A6802F008020AB1012000E0DE
:1021F00000207047816841F004018160704701460A
:1022000000208A6802F004020AB1012000E00020E8
:10221000704721B1826842F4A002826003E08268C4
:1022200022F4A00282607047014600208A6802F40E
:1022300080020AB1012000E00020704710B50A4674
:1022400000210023416821F46041531E41EA4331DB
:10225000416010BD21B1426842F40062426003E077
:10226000426822F4006242607047F0B504460D46B1
:1022700000200021092D11DDE068A5F10A0606EB1A
:102280004607072606FA07F18843A5F10A0606EB7A
:10229000460603FA06F10843E0600CE0206905EB0E
:1022A0004507072606FA07F1884305EB450603FABA
:1022B00006F108432061072A0FDA606B561E06EB11
:1022C00086071F2606FA07F18843561E06EB860688
:1022D00005FA06F10843606322E00D2A0FDA206B4D
:1022E000D61F06EB86071F2606FA07F18843D61F7E
:1022F00006EB860605FA06F10843206310E0E06A63
:10230000A2F10D0606EB86071F2606FA07F18843A1
:10231000A2F10D0606EB860605FA06F10843E06217
:10232000F0BD21B1826842F48012826003E08268CD
:1023300022F48012826070470146C86C80B27047F8
:1023400066484C300068704721B1426842F48062B0
:10235000426003E0426822F480624260704721B12B
:10236000426842F48052426003E0426822F48052A4
:10237000426070470A460021816821F4E041114320
:102380008160704721B1826842F40042826003E0BC
:10239000826822F400428260704721B1826842F470
:1023A0000212826003E0826822F4021282607047A7
:1023B000014600208A6802F400120AB1012000E000
:1023C00000207047F0B50446154600200022002684
:1023D000092911DDE068A1F10A0707EB470C07277F
:1023E00007FA0CF29043A1F10A0707EB470703FA3B
:1023F00007F21043E0600CE0206901EB410C072775
:1024000007FA0CF2904301EB410703FA07F210437D
:102410002061A06BC0F30156EF1C06F1010CA7EB85
:102420000C0707EB870C1F2707FA0CF29043EF1CF1
:1024300006F1010CA7EB0C0707EB870701FA07F27F
:102440001043A063F0BD10B50A4600210023816B44
:1024500021F44011531E41EA0351816310BD08B5B8
:10246000002300930090009B0B440093009B1A6094
:1024700008BD08B5024600200090009201F1280036
:10248000009B184400900098006880B208BD0A467E
:1024900000214168164B1940114341607047416269
:1024A000826270470A460021416821F01F011143F2
:1024B0004160704740B109490831096841F40001A1
:1024C000064A0832116007E004490831096821F41E
:1024D0000001024A083211607047000000240140E8
:1024E00000280140003C0140FFFEF0FFFDF7F1FF36
:1024F000FFFD3FFF0246002013680B400BB1012097
:1025000000E000207047CA430260704770B5024681
:102510000020002300240B125568CEB205EA060401
:1025200015681D4015B10CB1012000E0002070BD00
:1025300000220A12D34303607047000001684FF67F
:10254000FE72114001600021016041608160C16044
:102550008D49884208D18C490839496841F00F01FA
:10256000894A083A51608AE087491431884208D183
:1025700085490839496841F0F001834A083A5160B9
:102580007DE081492831884208D17F49083949686E
:1025900041F470617C4A083A516070E07A493C31FC
:1025A000884208D178490839496841F47041764A2F
:1025B000083A516063E074495031884208D1724949
:1025C0000839496841F470216F4A083A516056E071
:1025D0006D496431884208D16B490839496841F432
:1025E0007001694A083A516049E067497831884288
:1025F00008D165490839496841F07061624A083A72
:1026000051603CE06149884206D1011F096841F0F0
:102610000F01021F116032E05C491431884208D179
:102620005A49091F096841F0F001584A121F116008
:1026300025E056492831884208D15449091F0968C4
:1026400041F47061514A121F116018E04F493C314A
:10265000884208D14D49091F096841F470414B4A2D
:10266000121F11600BE049495031884207D1474998
:10267000091F096841F47021444A121F1160704714
:1026800010B50022026847F6F0739A430C6A8B6813
:1026900023430C6923434C6923438C692343CC694E
:1026A00023434C6A23438C6A23431A430260CB685A
:1026B00043600B6883604B68C36010BD00210160FC
:1026C00041608160C160016141618161C1610162FC
:1026D00041628162704721B1026842F001020260EA
:1026E00004E002684FF6FE731A40026070471AB1A8
:1026F00003680B43036002E003688B430360704789
:10270000416070470146486880B27047014600202A
:10271000002201F080531BB11C4B083B1A6802E0F9
:10272000194B083B1A6802EA01030BB1012000E0D3
:102730000020704700F0805119B11449091F08604A
:1027400002E0114908394860704701460020002224
:1027500001F080531BB10D4B083B1A6802E00A4B95
:10276000083B1A6802EA01030BB1012000E00020D7
:10277000704700F0805119B10449091F086002E058
:1027800001490839486070470800024008040240C7
:102790000948804709480047FEE7FEE7FEE7FEE7F5
:1027A000FEE7FEE7FEE7FEE7FEE7FEE70448054931
:1027B000054A064B70470000DF020008310100089F
:1027C000781A002078200020781C0020781C002037
:1027D00010B5012002F033FB40F2FF7002F0F1FC73
:1027E000C022FE49FE4802F01AFD002002F027FB3D
:1027F00010BD10B5FB480078012808D001F070FC2E
:10280000F9490968401AF9490968884208D900203D
:10281000F449087001F064FCF3490860FFF7D8FF41
:1028200010BD2DE9F04F89B005460026284602F07C
:10283000B4FA287823287ED1287950287BD168796A
:10284000532878D1A879432875D1E8794B2872D1DB
:10285000287B21286FD16878303864214843A978D3
:10286000303901EB810100EB4101E8783038084450
:1028700084B2687A303864214843A97A303901EB50
:10288000810100EB4101E87A30380F1817F5FA7F23
:102890004DDBB7F5FA7F4ADC082C48DA287A2B287A
:1028A00003D0287A2D2800D17F42384604F0D4F88E
:1028B000CB498C31079051F8240004F0CDF80690F4
:1028C000CB4800EB04108168069804F022FA834696
:1028D000079903F0FFFF8246C1488C3040F824700E
:1028E000C449504604F0E4F902D2DFF808A306E038
:1028F000C149504604F0DCF801D2DFF8FCA2504692
:1029000004F08AF8BA4901EB04114880B84800EB9A
:102910000410C0F808A00020B54901EB0411C860FC
:1029200001F0DEFBB04908600120AE49087009B033
:10293000BDE8F08FFFE72878232846D12879502872
:1029400043D16879442840D1A87953283DD1E8790A
:1029500054283AD1287A212837D168783038642130
:102960004843A978303901EB810100EB4101E87857
:102970003038084484B2082C0FDA00209C4901EB5F
:102980000411C8609A4901EB0411886804F044F806
:10299000974901EB0411488016E0FF2C14D1002464
:1029A00010E00020924901EB0411C860904901EB4E
:1029B0000411886804F030F88D4901EB0411488057
:1029C000601C84B2082CECDBB1E72EE1A85D232863
:1029D00013D10024701C86B208E0A85D04EB8401CA
:1029E00000EB4100303884B2701C86B2A85D00282C
:1029F000EBD0A85D5028E8D0EFE7A85D50281ED1A5
:102A00004FF00009701C86B212E0A85D04F03CF89B
:102A10007A490790484604F07FF80690079903F03A
:102A200059FF8346764904F07FF98146701C86B2CF
:102A3000A85D0028C9D0A85D5428C6D0E5E7A85DE8
:102A400054287DD14FF00008701C86B209E0A85DC3
:102A500008EB880100EB410030381FFA80F8701C49
:102A600086B2A85D10B1A85D2128F0D1082C76DAD5
:102A70006449484604F01CF871D85F49484604F0A0
:102A800017F96CD842F21070804568DC54498C31DB
:102A900051F8240003F0E0FF8346494603F01AFF93
:102AA00081465449484604F003F901D2DFF84491C5
:102AB0005149484603F0FCFF01D2DFF83C91B8F1E0
:102AC000140F11DA484603F0A7FF494901EB04113E
:102AD0004880474800EB0410C0F8089000204449A3
:102AE00001EB0411C8603AE0484603F095FF404905
:102AF00001EB041148803E4800EB0410A0F804806C
:102B00003B4901EB0411888803F0A7FD00223E4BEE
:102B1000CDE9000103F01CFCCDE90401344901EBCF
:102B20000411488803F0B0FF0190314800EB041015
:102B30008168019804F0F8F8834603F09FFE00E0F6
:102B400071E0CDE90201DDE9042303F001FCCDE9E8
:102B5000060103F0CBFB264901EB0411C860FF2CF2
:102B600063D100245CE01E498C3151F8241001F23D
:102B7000DC5003F071FF8146484603F04DFF1C49CD
:102B800001EB041148801A4800EB0410A0F80480FF
:102B9000174901EB0411888803F05FFD00221A4BEE
:102BA000CDE9000103F0D4FBCDE90401104901EBAC
:102BB0000411488803F068FF01900D4800EB0410F1
:102BC0008168019804F0B0F8834603F057FECDE920
:102BD0000201DDE9042303F0BBFB17E000F87F00EE
:102BE0002C0900204000002044000020600000204C
:102BF000AC00002000101C450000FA4300002041FA
:102C00000000404200401C4500003440CDE9060170
:102C100003F06CFBFA4901EB0411C860601C84B23C
:102C2000082C02DA9FE7701C86B2A85D00287FF4AA
:102C3000CDAE00BF7BE670B5024600210020002328
:102C400023E0545C542C1ED14C1C145D303C4FF4DA
:102C50007A756C438D1C555D303D05EBC50606EB62
:102C6000051504EB8505CC1C145D303C04EB840495
:102C700005EB44050C1D145D303C2B19834200DD2F
:102C80001846091D01E0491C00BF545C002CD8D136
:102C900070BD10B50446012002F0D1F84FF48061F8
:102CA000D84802F0B4FFE1017F22D64802F000FAD2
:102CB000D448FFF7C0FFD4490860D248FFF7B1FD00
:102CC0002246D2A1D64802F087FDD54802F051F83D
:102CD000002002F0B4F810BD10B5D24800780028EA
:102CE0005CD101F0FDF90021CF4AD2E90032C31ACC
:102CF00061EB0201C44800680022C01A8A4150DA20
:102D000001F0EEF90021C84A03C2C848006848B182
:102D1000C748006830B90120C2490870C5A002F058
:102D200028F810BDC6480068FFF7B3FFC548006823
:102D3000C5490968884218DAC1480068C24909686B
:102D400088420CD1BF480068BD490860B748006898
:102D500020B1B7480068401EB5490860E1E7B848AF
:102D60000068401CB64908601BE0B5480068B649D9
:102D7000096888420CD1B3480068B1490860AB4883
:102D8000006820B1AA480068401EA9490860C8E749
:102D9000AB480068401EAA49086002E00A209A4930
:102DA000086000BFBDE704E003788B4200D10270E9
:102DB000401C0378002BF7D170470146002215E034
:102DC0000878472811D1491C07E0087802EB8203F4
:102DD00000EB4300303882B2491C0878232802D027
:102DE00008782428F1D110467047491C087800283B
:102DF000E6D1401EF8E7F8B504460025012002F0B0
:102E00001EF8607824280CD1A078212809D100214F
:102E10008E4880F88810FFF7DBFC8DA001F0A9FF39
:102E2000F8BD6078242833D18048874B854A8DA12E
:102E30000090204602F0E4FD48B3824800688249D1
:102E40000968884208D17F480068C10180227F4814
:102E5000083002F02DF911E081217C48083002F0A1
:102E6000F8FE611C7948083002F08EFE204602F020
:102E7000AFFE801E7549083100220A54252173488F
:102E800080F88810FFF7A4FC7BA001F072FFC7E771
:102E90002046FFF792FF0546681C10B1A079232851
:102EA00003D07AA001F065FFBAE77B223C212046DF
:102EB000FFF779FF7D223E212046FFF774FFE801EE
:102EC000C11700EB11510913A0EB013131B9EE012B
:102ED000F11706EB1151081302F073F9204602F0C6
:102EE00077FE401C86B2E9013246204602F046F9E0
:102EF00067A001F03EFF66A001F05EFF002001F038
:102F00009EFF00BF8CE72DE9FC4104460D461646A6
:102F10001F4640F2DC50C11B06F2DC50CDE9000137
:102F200040F2DC50431B04F2DC525AA13C4802F050
:102F300053FC3B4801F031FFBDE8FC812DE9FC4129
:102F400004460D4616461F4640F2DC50C11B06F2F1
:102F5000DC50CDE9000140F2DC50431B04F2DC52AE
:102F60005CA12F4802F038FC2D4801F016FFBDE8A7
:102F7000FC8102680B6803600A60704713B501208A
:102F800001F05DFFDDE90001884203DD01A968462B
:102F9000FFF7EFFF19E04FF480611A4802F037FEA7
:102FA0000098C1018022174802F082F8154801F00C
:102FB000E0FE58A001F0DDFE124801F0FDFE55A034
:102FC00001F0FAFE0098401C0090DDE90001884203
:102FD000E1DD002001F033FF1CBD012080F31388E8
:102FE00000BF00BF4C48006800F4E0604B49084354
:102FF000001D49490860BFF34F8F00BF00BFFEE7C7
:10300000AC0000202C0500204800002040446F4701
:10301000726F7570202564204F4B210D0A0000004F
:103020002C01002067000020580000203C000020F8
:10303000300000204047726F7570446F6E6521004C
:103040002C00002034000020380000202C09002033
:1030500040434C454152205052455F434D44204F20
:103060004B2100003C244447543A25642D25642C10
:103070002564213E00000000405345542050524535
:103080005F434D44204F4B210000000045000000ED
:10309000410000007B2330303650253034645431F9
:1030A00035303021233030375025303464543135B9
:1030B00030302123303038502530346454313530AD
:1030C000302123303039502530346454313530309C
:1030D000217D00007B23303036502530346454305D
:1030E0003030302123303037502530346454303084
:1030F0003030212330303850253034645430303073
:103100003021233030395025303464543030303061
:10311000217D00000D0A00000CED00E00000FA0522
:103120002DE9F14F88B0FDA1089800F014FE824609
:10313000BAF1000F03D0FBA001F01BFE5FE3FEA17C
:10314000089800F008FE8246BAF1000F26D0012050
:10315000FB4908704FF0000B10E00020F94901EB2B
:103160000B11C860F74901EB0B11886803F054FCA0
:10317000F44901EB0B1148800BF1010BBBF1080F77
:10318000EBDBF1A001F009FE00231A4619461846B0
:10319000FFF7D4FEFF20EF49087030E3EEA1089856
:1031A00000F0D9FD8246BAF1000F26D006AAECA1A4
:1031B000089802F025FC0028C0D00020E149069ABA
:1031C00001EB0211C860DF49069A01EB0211886821
:1031D00003F022FCDB49069A01EB02114880E3A1CF
:1031E000E648069A02F0F8FAE44801F0D6FD4FF4FA
:1031F0008061E24802F00BFD01E3E1A1089800F0D4
:10320000AAFD8246BAF1000F01D0FFF7E6FEDEA16B
:10321000089800F0A0FD8246BAF1000F0CD004AB74
:1032200005AADBA1089802F0EBFB002886D0DDE9B7
:103230000410FFF7A3FEE2E2D8A1089800F08BFD8E
:103240008246BAF1000F0DD005AAD6A1089802F067
:10325000D7FB0028A1D00120B94908700598FFF7D5
:1032600018FDCCE2D2A1089800F075FD8246BAF1B3
:10327000000F23D0D048D14BD14AD2A1009008985A
:1032800002F0BEFB002888D00120AD490870CC4870
:103290000068CA49096888420BD0C9480068CD490E
:1032A0000860C5480068CC4908600020A44908703F
:1032B000A5E2C3480068FFF7ECFCA0E2C7A10898AC
:1032C00000F049FD8246BAF1000F12D002A803A90E
:1032D00004AB05AACDE90010C2A1089802F090FB4A
:1032E000002889D0DDE90232DDE90410FFF726FE6F
:1032F00085E2C1A1089800F02EFD8246BAF1000FC8
:103300004ED0BFA001F049FD00231A4619461846C9
:10331000FFF714FEFF208F4908704FF0000B3BE0D1
:10332000BC4830F82B0000F2DC50864901EB0B1151
:1033300048804FF4FA60834901EB0B118880814982
:1033400001EB0B11888803F088F906460022B24B86
:1033500002F0FEFF04460D467A4901EB0B11488846
:1033600003F092FB0746774800EB0B108168384664
:1033700003F0DAFC064603F081FA22462B46CDE93B
:10338000000102F0E5FF804602F0B0FF6D4901EB5D
:103390000B11C8600BF1010BBBF1080FC0DB2EE273
:1033A0009EA1089800F0D7FC8246BAF1000F0AD01F
:1033B0004FF47A731A4619461846FFF7BFFD99A0D5
:1033C00001F0EBFC1BE29BA1089800F0C4FC8246D4
:1033D000BAF1000F09D0994B1A4619461846FFF763
:1033E000ADFD97A001F0D9FC09E299A1089800F081
:1033F000B2FC8246BAF1000F0AD04FF47A735A42F7
:1034000019461046FFF79AFD93A001F0C6FCF6E1BD
:1034100095A1089800F09FFC8246BAF1000F09D0F0
:10342000864B5A4219461046FFF788FD90A001F0DE
:10343000B4FCE4E192A1089800F08DFC8246BAF158
:10344000000F09D07D4B5A4211461846FFF776FD12
:103450008DA001F0A2FCD2E18FA1089800F07BFCC6
:103460008246BAF1000F0AD04FF47A735A421146DD
:103470001846FFF763FD8AA001F08FFCBFE18CA125
:10348000089800F068FC8246BAF1000F0CD00023C7
:103490001A4619461846FFF751FD87A001F07DFC3A
:1034A000FF202C490870AAE188A1089800F053FC7D
:1034B0008246BAF1000F0AD04FF47A731A461946C1
:1034C0001846FFF720FD57A001F067FC97E181A1A6
:1034D000089800F040FC8246BAF1000F09D0574B23
:1034E0001A4619461846FFF70EFD55A001F055FC87
:1034F00085E17AA1089800F02EFC8246BAF1000F0F
:103500000AD04FF47A735A4219461046FFF7FBFC73
:1035100051A001F042FC72E1E4E000002444525367
:103520002100000048656C6C6F2052542D74687245
:103530006561642100000000244453542100000010
:1035400067000020AC00002023323535504453542E
:103550002100000066000020244453543A0000007B
:10356000244453543A2564210000000023253033BD
:103570006450445354210D0A000000002C01002027
:103580002452535421000000245054473A000000B4
:10359000245054473A25642D256421002444475380
:1035A0003A000000244447533A25642100000000FB
:1035B000244447543A0000003C000020380000201A
:1035C00034000020244447543A25642D25642C25DA
:1035D000642100002C0000203000002024444352CD
:1035E0003A000000244443523A25642C25642C25DB
:1035F000642C25642100000024444A52210000006C
:103600002332353550313530305432303030210DA1
:103610000A000000B80900200000344024514A216B
:10362000000000002330313050313530325430301A
:1036300030302100244854210000000018FCFFFF16
:103640002330313050313530335430303030210078
:10365000245A5A21000000002330313050313530D7
:10366000345430303030210024595A2100000000F9
:103670002330313050313530355430303030210046
:10368000245A505921000000233031305031353058
:103690003654303030302100245950592100000078
:1036A0002330313050313530375430303030210014
:1036B00024545A210000000023303130503135307D
:1036C00031335430303030210000000024514A3171
:1036D000210000002448543121000000245A5A31AE
:1036E00021000000FCA1089800F035FB8246BAF1E9
:1036F000000F0AD0FA4B5A4219461046FFF703FC56
:10370000AFF2940001F049FB79E0F6A1089800F0CF
:1037100022FB8246BAF1000F0AD0F14B5A42114601
:103720001846FFF7F0FBAFF2A00001F036FB66E0B1
:10373000EEA1089800F00FFB8246BAF1000F0BD003
:103740004FF47A735A4211461846FFF7DCFBAFF28A
:10375000B00001F022FB52E0E6A1089800F0FBFA6D
:103760008246BAF1000F03D0E4A001F002FB46E06C
:10377000E3A1089800F0EFFA8246BAF1000F19D0E1
:1037800005AAE1A1E34802F03BF9002837D0E2495D
:1037900005980870059810B9E0A001F0FEFA0598A8
:1037A000022802D1E1A001F0F8FA6421012000F022
:1037B00024FC24E0E1A1089800F0CDFA8246BAF199
:1037C000000F1CD0FF20D44908700A2000F09FFA97
:1037D000AFF28C20FFF725F80A2000F098FADBA062
:1037E00001F0C7FA0A2000F092FAE0A001F0C1FA55
:1037F0000A2000F08CFA6421012000F0FEFB09B0E1
:10380000BDE8F08F10B5DB48007848B3DA4800789F
:10381000012803D1BF48FFF783FC16E0D6480078A3
:10382000022803D1BB48FEF7FCFF0EE0D248007827
:10383000032803D1B748FEF7F4FF06E0CE4800782E
:10384000042802D1B348FFF7D6FA0020CA4908700D
:10385000C8490870012240F22551C848FDF789FA8D
:1038600010BD10B500F03CFCC5490968401AB0F520
:103870007A7F14D900F034FCC1490860C14800784F
:1038800020B100210D2000F0D5FA03E001210D2028
:1038900000F0D0FABB480078C043BA49087010BDA8
:1038A00062B6704710B50221052000F0C3FA00216E
:1038B0000D2000F0BFFA642000F029FA0021052055
:1038C00000F0B8FA01210D2000F0B4FA642000F0F5
:1038D0001EFA0221052000F0ADFA00210D2000F0B3
:1038E000A9FA642000F013FA0021052000F0A2FAE2
:1038F00001210D2000F09EFA642000F008FA022158
:10390000052000F097FA00210D2000F093FA6420C2
:1039100000F0FDF90021052000F08CFA01210D20B6
:1039200000F088FA642000F0F2F94FF47A7000F0A9
:10393000EEF995A001F031FA10BD10B5472144F61B
:10394000206000F004FC10BD10B500209249086012
:1039500026E092489049096830F8210000F2DC50D6
:103960008F498D4A126801EB021148808C498A4ABE
:10397000126801EB0211488803F086F88849864AEC
:10398000126801EB0211886000208549824A1268A2
:1039900001EB0211C86080480068401C7E49086045
:1039A0007D4800680828D4DB7C488C3890F8880073
:1039B000252833D179498439564802F0E5F877480B
:1039C0008C38007A242804D174488438FFF7A8FB87
:1039D00024E010207049086016E030214D486E4AFE
:1039E0001268815402466C480068401C11546A48B1
:1039F0000068801C115468480068C01C1154664857
:103A000000680F3064490860424802F0E1F86249FA
:103A100009688842E1D83F48FEF703FF10BD10B5A2
:103A20004FF4E13000F0D0FF012240F225515D4813
:103A3000FDF79FF95CA001F0BFF910BD10B54FF480
:103A4000E13000F05FFF012240F225514B48FDF7C5
:103A500090F959A001F08DF910BD10B500F02AFBC6
:103A600010BD10B5012001F0EAF901F02CFAC022D6
:103A700055494A488C3801F01BFB48488C3800688F
:103A800040F2E471884205D0084644498C39086008
:103A90000020486041488C38D0F8AC00252817D069
:103AA00000203D4908600AE000213C483A4A12687B
:103AB00040F8221038480068401C374908603648F2
:103AC00000680828F0DB252134488C38C0F8AC1099
:103AD000002031490860A2E024595A312100000039
:103AE00018FCFFFF245A5059312100002459505925
:103AF000312100002447455441210000414141004B
:103B000024534D4F4445000024534D4F44452564F4
:103B1000210000002C0500206600002023303130F9
:103B20005031353132543030303021002330313093
:103B300050313531315430303030210024534D4133
:103B400052545F53544F5021000000002330303650
:103B50005031353030543030303021233030375010
:103B6000313530305430303030210000404F4B215F
:103B700000000000640000206500002000380140C3
:103B80004C000020500000202330313050313530BF
:103B9000315430303030210028000020B809002096
:103BA000AC000020004800407561727433206368E7
:103BB00065636B206F6B21007561727431206368DF
:103BC00065636B206F6B210000F87F003F48404920
:103BD000096830F8210000F2DC5081B23D483C4ACF
:103BE000126800EB021041803849394A126851F8D6
:103BF000221001F2DC5002F02FFF3649344A1268DD
:103C000001EB0211886000203249314A126801EB51
:103C10000211C8602E480068401C2D4908602C48DD
:103C200000680828D2DB002001F009F910BD10B5AA
:103C300000F07BF910BD10B500F021F9002105203E
:103C400000F0F8F810BD10B500F0E0F801210D20EB
:103C500000F0F0F810BD10B500F0CEF810BD10B5B2
:103C600000F062F810BD10B500F0E8F910BDFFF7E4
:103C7000FAFFFFF7F4FFFFF7EEFFFFF7E4FFFFF7B0
:103C8000DAFFFFF7D4FFFFF7ECFEFFF7E6FEFFF7E2
:103C9000D5FEFFF7C4FEFFF757FEFFF74EFEFFF716
:103CA00001FEFFF7FDFD01F008FC09E0FFF7D9FD7B
:103CB000FFF7A8FDFFF710F801F0BDFCFEF799FD36
:103CC000F4E710B501F077FD10BD0000B809002041
:103CD00028000020AC000020704700BF011EA0F1AA
:103CE000010290B2FAD1704700BF011EA0F101029B
:103CF00090B2FAD1704700B5034602E00620FFF704
:103D0000ECFF181EA3F101018BB2F7D100BD10B575
:103D1000044603E04FF47A70FFF7EDFF201EA4F194
:103D200001018CB2F6D110BD002011E040F2DC514F
:103D30002F4A02EB001251802E492D4A02EB00124D
:103D4000916000212A4A02EB0012D160411CC8B2E6
:103D50000828EBDB704770B504460B4621461A462F
:103D600019E008781578A84214D10AE011F8015B2F
:103D700012F8016BB54204D0D01A081A411C1A4639
:103D800002E010780028F1D100BF107818B9081BA4
:103D900080B270BD491C08780028E2D100BFF8E766
:103DA000F0B50C46002117E00A464B1C07E050F81E
:103DB000226050F82370BE4200DD1A465B1CA3420D
:103DC000F5DB8A4207D050F8225050F8216040F8C5
:103DD000226040F82150491C661E8E42E4DCF0BD92
:103DE0000146002901DD084670474842FCE7000013
:103DF000AC0000200080BB4410B501210D20FCF771
:103E00000BFE01218848FCF71CFC10BD08B5012100
:103E10000820FCF701FE4FF40050ADF80000102020
:103E20008DF8030003208DF8020069467F48FCF7F7
:103E300037FB08BD70B504460D4635B10120A040E2
:103E400081B27A48FCF7D9FB05E00120A04081B29D
:103E50007648FCF7D4FB70BD10B57548007820B1EA
:103E600000210D20FFF7E6FF03E001210D20FFF701
:103E7000E1FF6F480078C0436D49087010BD08B578
:103E800001210820FCF7C8FD2020ADF8000010201B
:103E90008DF8030003208DF8020069466348FCF7A3
:103EA000FFFA08BD70B504460D46002616E0022153
:103EB0000520FFF7BFFF00210D20FFF7BBFFA0B2D9
:103EC000FFF725FF00210520FFF7B4FF01210D209A
:103ED000FFF7B0FFA0B2FFF71AFF761CAE42E6D3A1
:103EE00070BD70B504460D4635B10120A04081B2C9
:103EF0005048FCF782FB05E00120A04081B24D480C
:103F0000FCF77DFB70BD70B504460D4635B1012050
:103F1000A04081B24848FCF770FB05E00120A040BA
:103F200081B24548FCF76BFB70BD08B501210C2040
:103F3000FCF772FD4FF40140ADF8000003208DF84E
:103F4000020010208DF8030069463A48FCF7A8FAF1
:103F50004FF47670ADF8000003208DF802001020B9
:103F60008DF8030069463148FCF79AFA08BD70B530
:103F700004460D46062C22D2DFE804F003080D1299
:103F8000171C29460320FFF755FF19E02946082092
:103F9000FFF750FF14E029460920FFF74BFF0FE021
:103FA00029460620FFF746FF0AE029460720FFF7CB
:103FB00041FF05E029460420FFF73CFF00E000BF79
:103FC00000BF70BD08B501210C20FCF725FD4FF4A2
:103FD0000060ADF8000048208DF8030069461348E2
:103FE000FCF75EFA0220ADF8000048208DF80300CF
:103FF00069461048FCF754FA08BD70B505460C46F2
:1040000000260EE002210520FFF714FFA0B2FFF703
:104010007EFE00210520FFF70DFFA0B2FFF777FE1F
:10402000761CAE42EEDB70BD00023000000C014099
:1040300068000020000801400010014010B5FCF7A6
:104040007DFB4FF48030FCF799FBFCF7D6FB044670
:1040500000BF002CFDD00020FCF715FC4FF4806061
:10406000FCF71AFC0020FCF720FC4FF4E0114FF4A1
:104070008030FCF7EBFB0120FCF7F4FB00BF39209C
:10408000FCF79FFB0028FAD00220FCF7EEFB00BFF4
:10409000FCF7F4FB0828FBD110BD000010B5044666
:1040A0000021204602F004FE01D2204610BD84F01B
:1040B0000040FBE700204FF0E0218861FB484861A9
:1040C0000846006940F007000861704700204FF083
:1040D000E0218861F6480068401CF5490860704797
:1040E000F348006870477FB504460D460121C802B9
:1040F000FCF792FCADF80840681E80B2ADF80400F1
:104100000020ADF80A00ADF806008DF80C0001A9FA
:10411000E848FDF72BF80121E648FDF749FE0122AA
:104120004121E448FDF799FB19208DF8000000209B
:104130008DF801008DF8020001208DF8030068461B
:10414000FCF7D3FC0121DB48FDF76CFB7FBD7FB59D
:1041500005460C4601210846FCF76BFCADF80850FB
:10416000ADF804400020ADF80A00ADF8060001A942
:104170004FF08040FCF7FAFF00214FF08040FDF740
:1041800051FC012211469007FDF767FB1C208DF8BA
:10419000000001208DF8010002208DF802000120AE
:1041A0008DF803006846FCF7A0FC01218807FDF7A5
:1041B00039FB7FBD7FB505460C4601210220FCF787
:1041C00038FCADF80850ADF804400020ADF80A0006
:1041D000ADF8060001A9B848FCF7C8FF0021B648B1
:1041E000FDF720FC01221146B348FDF736FB1D20E8
:1041F0008DF8000003208DF8010001208DF80200E9
:104200008DF803006846FCF770FC0121AA48FDF711
:1042100009FB7FBD30B589B005460C46012102205F
:10422000FCF707FC01210820FCF7F6FB0320ADF8A2
:10423000200018208DF8230003208DF8220008A903
:104240009E48FCF72DF9ADF81850ADF81440002049
:10425000ADF81A00ADF8160005A99748FCF786FFDF
:104260006020ADF804000120ADF806000020ADF894
:104270000C004FF4FA70ADF80A0001A98E48FDF762
:1042800041F808218C48FDF713FC01A98A48FDF785
:1042900084F808218848FDF714FC01218648FDF7C1
:1042A000C1FA09B030BD30B589B005460C460121D0
:1042B0000420FCF7BEFB01210820FCF7ADFB4FF406
:1042C0004070ADF8200018208DF8230003208DF8F1
:1042D000220008A97948FCF7E3F8ADF81850ADF8CA
:1042E00014400020ADF81A00ADF8160005A9744876
:1042F000FCF73CFF6020ADF804000120ADF806009B
:104300000020ADF80C004FF4FA70ADF80A0001A9D6
:104310006B48FCF7F7FF08216948FDF7C9FB01A9C5
:104320006748FDF73AF808216548FDF7CAFB012107
:104330006348FDF777FA09B030BD10B50446002197
:10434000204602F0B5FC01D2204610BD84F00040AA
:10435000FBE72DE9F04704465A4901EB0411C86810
:10436000002102F025FB4AD0564800EB0410458896
:1043700040F6BA10854201DD054604E0B5F5FA7F46
:1043800001DA4FF4FA754F4A02EB0412D1684D4A34
:1043900002EB0412D06802F09DFA8046FFF7CDFFD1
:1043A0000646284602F058FB8146464800EB0410BA
:1043B0008168484602F0B8FC8046FFF7BEFF07461A
:1043C000314602F075FB0CD8284602F045FB3D490A
:1043D00001EB0411886000203A4901EB0411C86028
:1043E0000DE0384A02EB0412D168364A02EB04129F
:1043F000906802F06FFA334901EB04118860BDE860
:10440000F08710B501218807FDF7D5FC002841D0C1
:1044100001218807FDF7E0FC2B480078082802D12D
:1044200000202949087029480078A0B92549264A62
:10443000127801EB0211886802F0EEFA4FF0804129
:104440008885012120480078FFF791FD1E480078FB
:10445000FFF77FFF16E01B491B4A127801EB0211A0
:10446000886802F0D9FA40F6C4110C1A09078C8545
:10447000002115480078FFF77AFD13480078401CAA
:10448000114908701148007808B9012000E00020A7
:104490000E49087010BD10B501210748FDF78BFCCF
:1044A00018B101210448FDF797FC10BD4019010027
:1044B0006C000020002C014000040040000C014072
:1044C00000080040AC0000207800002077000020A9
:1044D00030B589B005460C46012140F60400FCF7D2
:1044E0009BFA4FF48070ADF8040048208DF8070067
:1044F00003208DF8060001A9F348FBF7D1FF1B202C
:104500008DF8080000208DF8090001208DF80A00C0
:104510008DF80B0002A8FCF7E8FA19208DF80800C6
:1045200000208DF809008DF80A0001208DF80B009D
:1045300002A8FCF7DAFAADF81050ADF80C400020F4
:10454000ADF81200ADF80E0003A9E048FCF70EFE2E
:104550000020ADF818000220ADF81A000020ADF8D8
:104560001E000120ADF81C000020ADF8200006A9B7
:10457000D648FDF78EF80121D448FDF719FC022139
:10458000D248FDF715FC01220221D048FDF765F95C
:104590000121CE48FDF746F909B030BD10B5012123
:1045A000CA48FDF708FC012825D10121C748FDF7BD
:1045B000FFFBC7480078022805DAC5480078401C90
:1045C000C349087017E0C34800781F2813DD002096
:1045D000C1490870C1490870C1490870C1490870D3
:1045E000C1490870BA490870BA490870002201210F
:1045F000B648FDF732F910BD10B50221B348FDF7FA
:10460000DAFB012815D10221B048FDF7D1FBB348F0
:104610000078002853D1B048007858B90021AB4841
:10462000FDF794FB0021A948FDF7AEFA0120AA4945
:10463000087048E1A848007801281FD1A348FDF779
:104640009BFBAA4908800021A048FDF77FFB0221BF
:104650009E48FDF799FAA5480088B0F5FA5F09DD94
:10466000A248008842F21071884203DA02209A4977
:10467000087028E100209849087024E196480078E5
:104680000228D6D19148FDF777FB9949088000218F
:104690008E48FDF75BFB9648008840F6AC51884297
:1046A00009DD9348008841F27C51884203DA0120F9
:1046B0008A49087007E100208749087003E18548AE
:1046C0000078202852DA8148FDF756FB8949088096
:1046D00000217E48FDF73AFB86480088B0F57A7FD6
:1046E0000CDA84480088B0F5166F07DD00207A499F
:1046F00008707A49087077490870E4E07E480068DD
:1047000040007D4908607B48008840F2A4618842EF
:1047100005DD7948006840F00100774908606D4880
:104720000078401C6B490870084600782028A0D10A
:1047300071480068000E714908706F480068000CED
:1047400048706D480088000A88706B480078C8700F
:1047500008468078C9780844FF288AD000205E493E
:1047600008705E4908705B490870ACE05C480078EE
:10477000B0B95648FDF700FB5C490880002153485A
:10478000FDF7E4FA00215148FDF7FEF901205C49EC
:10479000087000204E49087001205149087073E0EC
:1047A0004F480078012822D14848FDF7E5FA4F49E3
:1047B000088000214548FDF7C9FA02214348FDF76A
:1047C000E3F94A480088B0F5FA5F09DD47480088F8
:1047D00042F21071884203DA02204149087053E026
:1047E00000203F49087001203F4908704CE03C48D8
:1047F0000078022822D13548FDF7BEFA3C490880EE
:1048000000213248FDF7A2FA3948008840F2A4613D
:1048100088420CDD36480088B0F5166F07DA0021B3
:104820002A48FDF7B1F903202D4908702CE000203B
:104830002B49087001202C49087025E02848007891
:10484000032821D12148FDF797FA28490880002143
:104850001E48FDF77BFA02211C48FDF795F9234815
:104860000088B0F5FA7F09DD2048008840F28A21EF
:10487000884203DA01201B49087002E001201A492E
:1048800008700020164908701648007848B10020CA
:10489000144908700E490870012211460B48FCF7B4
:1048A000DCFF1148007870B100200B4908700B49FB
:1048B00008700B4908700B4908700B4908700449CF
:1048C00008700449087010BD00080140002C014028
:1048D000750000207600002070000020710000208C
:1048E000720000207300002074000020800000206F
:1048F00082000020840000207C0000209100002025
:104900009500002010B588B00446012144F204004F
:10491000FCF782F8FA48FCF751F94FF40070ADF853
:104920001C0003208DF81E0018208DF81F0007A919
:10493000F448FBF7B5FD4FF48060ADF81C0004208F
:104940008DF81F0007A9EF48FBF7AAFD039400208C
:10495000ADF81000ADF81200ADF81400ADF8180075
:104960000C20ADF816000020ADF80400ADF80600EC
:104970004FF40070ADF808000020ADF80A0001A95E
:10498000DF48FCF7D3F903A9DD48FCF75AF94FF4E7
:10499000E060FCF7A5F825208DF8000001208DF8D7
:1049A00001008DF802008DF803006846FCF79DF8C1
:1049B000012240F22551D248FCF7DBF90121D04811
:1049C000FCF7CBF908B010BD10B586B00446012144
:1049D0000820FCF721F801218804FCF72AF84FF49D
:1049E0008060ADF8140018208DF8170003208DF8B2
:1049F000160005A9C448FBF753FD4FF40060ADF85D
:104A0000140004208DF8170005A9BF48FBF748FDE6
:104A100001940020ADF80800ADF80A00ADF80C00D4
:104A2000ADF810000C20ADF80E0001A9B748FCF756
:104A300008F927208DF8000001208DF801000320DF
:104A40008DF8020001208DF803006846FCF74DF850
:104A5000012240F22551AD48FCF78BF90121AB480A
:104A6000FCF77BF906B010BD10B504462146A448FA
:104A7000FCF7E0F910BD70B505460E46002400BFF6
:104A80000CE0295D9E48FCF7D5F900BF80219C48C9
:104A9000FCF73EFA0028F9D0601C84B2B442F0DB87
:104AA00070BD10B504460BE014F8011B9448FCF7E8
:104AB000C1F900BF80219248FCF72AFA0028F9D0FA
:104AC00020780028F0D110BD10B5044621468F484B
:104AD000FCF7B0F910BD70B505460E46002400BFC6
:104AE0000CE0295D8948FCF7A5F900BF80218748C3
:104AF000FCF70EFA0028F9D0601C84B2B442F0DB57
:104B000070BD10B504460BE014F8011B7F48FCF79C
:104B100091F900BF80217D48FCF7FAF90028F9D00F
:104B200020780028F0D110BD10B540F2255174480E
:104B3000FCF7EEF901287FD140F225517048FCF7CF
:104B400027FA6F48FCF77AF9C4B27148007808B1C7
:104B5000002010BD3C2C06D104206E4908700020B6
:104B60006D4908801CE06B480078C8B9242C03D13B
:104B700001206849087010E0232C03D10220654908
:104B800008700AE07B2C03D103206249087004E01E
:104B90003C2C02D104205F49087000205E49088047
:104BA0005D4801880088401C5B4A10805B48445483
:104BB00058480078042809D13E2C07D100205749D5
:104BC000128888540120524908702BE0514800781F
:104BD00001280AD1212C08D1002050494E4A1288C0
:104BE000885401204A4908701CE04A48007802288D
:104BF0000AD1212C08D100214848474A1288815403
:104C00000120434908700DE042480078032809D18B
:104C10007D2C07D1002041493F4A12888854012049
:104C20003B4908703C480088B0F5806F04DB0020E9
:104C3000394900E000E0088000208AE710B540F222
:104C400025513248FCF764F9012858D140F225512A
:104C50002E48FCF79DF92D48FCF7F0F8C4B22C481B
:104C6000007808B1002010BD3C2C06D10420294951
:104C7000087000202A4908801CE026480078C8B93E
:104C8000242C03D101202349087010E0232C03D1E8
:104C90000220204908700AE07B2C03D103201D4923
:104CA000087004E03C2C02D104201A49087000204E
:104CB0001B4908801A4801880088401C184A108047
:104CC0001648445413480078042809D13E2C07D1D3
:104CD000002012491288885401200D4908703EE0D6
:104CE0000C48007801281DD1212C1BD100200B4934
:104CF0000B4A128888540120054908702FE036E0DD
:104D00000038014000080140000C0140004800400C
:104D10006400002065000020860000202C05002093
:104D2000880000202E48007802280AD1212C08D1C2
:104D300000212C482C4A1288815401202B490870EC
:104D40000DE027480078032809D17D2C07D10020E9
:104D50002449254A12888854012024490870224891
:104D60000088B0F5806F02DB00201F49088000201A
:104D700079E710B504462046FFF793FE10BD70B5E5
:104D800004460D4629462046FFF775FE70BD10B556
:104D900004462046FFF768FE10BD10B5044601200A
:104DA000124908702046FFF7ACFE2046FFF779FE57
:104DB00000200E49087010BD10B504462046FFF7CC
:104DC000A0FE10BD70B504460D4629462046FFF7EB
:104DD00082FE70BD10B504462046FFF775FE10BD7B
:104DE000650000202C0500208800002064000020C1
:104DF00070B50546002405E0601CC4B2C82C01DD76
:104E0000002070BD0221FE48FDF739F90028F3D0DB
:104E10002946FB48FDF7E0F8002405E0601CC4B219
:104E2000C82C01DD0020ECE70121F548FDF727F94A
:104E30000028F3D0F248FDF7D1F8C0B2E1E710B591
:104E40000446ACB14FF40050EE4908801820C870F9
:104E5000ED48FBF725FB4FF40051EB48FBF7CDFB8A
:104E60000121E748FDF787F8FF20FFF7C1FF0EE0BB
:104E70000021E348FDF77FF84FF40050E149088036
:104E80001020C87003208870DF48FBF709FB10BDB5
:104E9000002106E00A2100BF0A1EA1F1010399B218
:104EA000FAD1021EA0F1010398B2F3D1704710B5F8
:104EB0000020D6498881D248FCF7B8FF0121D048AC
:104EC000FDF759F810BD08B501210820FBF7A4FD36
:104ED0004FF48050ADF8000010208DF8030003203F
:104EE0008DF802006946C848FBF7DAFA4FF48051A2
:104EF000C548FBF782FB4FF42040ADF800001820B6
:104F00008DF803006946C048FBF7CAFA4FF48040A9
:104F1000ADF8000048208DF803006946BA48FBF759
:104F2000BFFA4FF42041B848FBF767FB0121880323
:104F3000FBF77FFD0020B54908804FF48270488060
:104F4000002088800220C88001200881400248811A
:104F5000382088810020C88107200882A848FCF7F3
:104F600065FF0121A648FDF706F8FF20FFF740FF87
:104F7000FFF79DFF08BD10B53020A4498881A048E7
:104F8000FCF754FF01219E48FCF7F5FF10BD10B55A
:104F9000002400224FF480519B48FBF732FB902005
:104FA000FFF726FF0020FFF723FF0020FFF720FF79
:104FB0000020FFF71DFFFF20FFF71AFF44EA00243F
:104FC000FF20FFF715FF0443012211038E48FBF772
:104FD00018FB204610BD10B5002400224FF480516C
:104FE0008948FBF70EFB0520FFF702FFFF20FFF7C4
:104FF000FFFE0446012211038348FBF702FB204613
:1050000010BD10B5044600224FF480517E48FBF7D6
:10501000F8FA0120FFF7ECFE2046FFF7E9FE012237
:1050200011037948FBF7EDFA10BD10B500224FF4DB
:1050300080517548FBF7E5FA0620FFF7D9FE0122FB
:1050400011037148FBF7DDFA10BD10B500224FF4D3
:1050500080516D48FBF7D5FA0420FFF7C9FE012205
:1050600011036948FBF7CDFA10BD10B504460022C4
:105070004FF480516448FBF7C4FA0320FFF7B8FEF1
:10508000C4F30740FFF7B4FEC4F30720FFF7B0FEF8
:10509000E0B2FFF7ADFEFF20FFF7AAFE5C49087003
:1050A000012211035848FBF7ACFA5948007810BDAB
:1050B0002DE9F04106460C46174600224FF4805178
:1050C0005148FBF79EFA0320FFF792FEC4F3074016
:1050D000FFF78EFEC4F30720FFF78AFEE0B2FFF76A
:1050E00087FE002505E0FF20FFF782FE7055681C53
:1050F00085B2BD42F7DB012211034348FBF781FA79
:10510000BDE8F08110B500BFFFF765FF00F00100BA
:105110000028F9D110BD2DE9F04107460C4616468E
:10512000E0B2C0F58078464500DD4646FFF77DFFDA
:1051300000224FF480513448FBF763FA0220FFF756
:1051400057FEC4F30740FFF753FEC4F30720FFF7F1
:105150004FFEE0B2FFF74CFE002504E0785DFFF75C
:1051600047FE681C85B2B542F8DB012211032648D0
:10517000FBF747FAFFF7C6FFBDE8F0812DE9F041E4
:1051800007460E461446F0B2C0F58075AC4200DC0E
:10519000254612E02A4631463846FFF7BCFFAC42AE
:1051A00000D10BE02F442E44601B84B2B4F5807F05
:1051B00002DD4FF4807500E02546EBE700BFBDE857
:1051C000F08110B504462403FFF72FFFFFF79AFF85
:1051D00000224FF480510C48FBF713FA2020FFF710
:1051E00007FEC4F30740FFF703FEC4F30720FFF7F1
:1051F000FFFDE0B2FFF7FCFD01221103024809E0C8
:10520000003800408A000020000C0140EC0900201A
:105210008E000020FBF7F5F9FFF774FF10BD2DE9B4
:10522000F04781460F4616464FEA1738C7F30B0A78
:10523000CAF58054A64200DC344644E04FEA083107
:105240004FF480528A48FFF733FF002508E00AEB4D
:1052500005008749085CFF2800D003E0681C85B280
:10526000A542F4DB00BFA54216DA4046FFF7A9FFCE
:10527000002507E019F8050005EB0A017C4A5054A7
:10528000681C85B2A542F5DB4FEA08314FF4805225
:105290007748FFF773FF04E0224639464846FFF798
:1052A0006DFFA64200D10FE008F101084FF0000A9F
:1052B000A1442744301B86B2B6F5805F02DD4FF46F
:1052C000805400E03446B9E700BFBDE8F0872DE91F
:1052D000F04107460C461546C4F30B00C0F5805656
:1052E000B54200DD35462A4621463846FFF746FFDF
:1052F000BDE8F0812DE9F04381B0ADF5805D8046D9
:105300000F4616464FF00009C7F30B00C0F5805456
:10531000A64200DC344644E04FEA17394FEA09312F
:105320004FF4805201A8FFF7C3FE002509E0C7F340
:105330000B00284401A9085CFF2800D003E0681C8A
:1053400085B2A542F3DB00BFA54217DA4846FFF756
:1053500038FF002508E018F80500C7F30B012944C1
:1053600001AA5054681C85B2A542F4DB4FEA09310A
:105370004FF4805201A8FFF7AAFF04E02246394605
:105380004046FFF7A4FFA64200D10BE0A04427440B
:10539000301B86B2B6F5805F02DD4FF4805400E02A
:1053A0003446B9E700BF01B00DF5805DBDE8F0837C
:1053B00070B505460C46FFF738FE00224FF48051C9
:1053C0002C48FBF71EF90220FFF712FDC4F307403B
:1053D000FFF70EFDC4F30720FFF70AFDE0B2FFF769
:1053E00007FD2846FFF704FD012211032148FBF7C2
:1053F00008F9FFF787FE70BD10B5FFF716FEFFF73F
:1054000081FE00224FF480511A48FBF7FAF8C720BA
:10541000FFF7EEFC012211031648FBF7F2F8FFF745
:1054200071FE10BD10B500224FF480511148FBF7FA
:10543000E8F8B920FFF7DCFC012211030D48FBF767
:10544000E0F80320FFF724FD10BD10B500224FF453
:1054500080510848FBF7D5F8AB20FFF7C9FC0122C3
:1054600011030448FBF7CDF80320FFF711FD10BD31
:10547000FE090020000C014008B501210C20FBF7BB
:10548000CBFA0120ADF8000010208DF803000320B6
:105490008DF8020069467748FBF702F80420ADF862
:1054A00000008DF8030069467348FAF7F9FF4721B9
:1054B00047F23050FEF77EFE08BD10B5FFF7DCFF67
:1054C00010BD002107E0002201E0531C9AB2092A16
:1054D000FBDB4B1C99B28142F5DB70472DE9F041B3
:1054E00001210020FEF7A6FC1420FFF7EAFF0021AF
:1054F0000846FEF79FFC00BF04215F48FBF763F8F6
:105500000028F9D000215D48FCF720FC01215B4810
:10551000FCF788F900BF04215748FBF754F801282D
:10552000F9D000215548FCF77DF95448FCF731FCCF
:10553000044646F2A81084420EDA204601F08DF8A7
:1055400005464F4A4F4B01F09BF8074601F058F8CB
:1055500084B22046BDE8F0810020FBE710B50024AE
:1055600009E0FFF7BBFF484941F824000520FEF79A
:10557000CEFB601CC4B2052CF3DB05214248FEF7CC
:105580000FFC41488068414908600846006810BD2A
:1055900070B54FF4FA74FEF7A3FD3D490968401A4F
:1055A000B0F5FA7F22D9FEF79BFD39490860FFF775
:1055B000D5FF0546232D0DDA36480078012809D19C
:1055C0006342224661422046FDF7B8FC0020314983
:1055D00008700BE02F48007840B900231A4619469E
:1055E0001846FDF7ABFC01202A49087070BD10B5C4
:1055F0002948007800B910BDFEF772FD27490968F7
:10560000401A642815D9FEF76BFD24490860FFF79E
:10561000A5FF04460A2C0CD100231A461946184649
:10562000FDF78CFC64210120FEF7E7FC1CA0FDF7D0
:1056300077FD00BFDFE710B51D48007810B9FFF710
:10564000D6FF05E01A480078012801D1FFF7A0FF36
:105650001848007816490978884209D0144800781B
:105660001449087000201449087001200A49087084
:1056700010BD0000000C0140000801400004004083
:105680009CC420B07268913F001A0020980000204E
:10569000A00000209C00002067000020A400002043
:1056A000244447543A332D31312C3121000000007D
:1056B00066000020960000209000002000B585B014
:1056C0004148FCF713FD0020009001208DF80400F4
:1056D0008DF805004FF46020029000200390012017
:1056E0008DF8100069463848FCF727FD4FF400405C
:1056F000FBF7F6F80723012205213348FCF7B5FD37
:1057000001213148FCF750FD01212F48FCF741FDF4
:105710002D48FCF760FD00BF2B48FCF761FD002819
:10572000FAD12948FCF766FD00BF2748FCF767FD62
:105730000028FAD101212448FCF76BFD05B000BD1B
:1057400000B58BB02148FCF7F9FE1F484C300090A3
:105750001F48019000200290012003900020049037
:10576000802005904000069080000790202008903F
:105770000002099000200A9069461448FCF780FF57
:1057800001211248FCF7A7FF0BB000BD08B50121AD
:105790000846FBF734F901214FF40170FBF73CF99F
:1057A0002020ADF8000000208DF80300694609486C
:1057B000FAF776FE08BD10B5FFF7E8FFFFF7C0FF68
:1057C000FFF77CFF10BD00000024014008000240EC
:1057D000A8000020000801400FB41CB5074B06AA22
:1057E0007B4469460090059800F0BBFA00206946AA
:1057F00000F0CAFA1CBC5DF814FB0000A50500000F
:1058000070B5044685690068C10601D5302600E000
:105810002026C00707D070BDD4E90121304690474B
:10582000206A401C20626D1EF6D570BD70B504461E
:1058300085690078C00707D170BDD4E90121202017
:105840009047206A401C20626D1EF6D570BD000096
:105850002DE9F0410646002410687529314616A549
:1058600010D0AFF30080002802DA404213A507E011
:1058700031688A0701D512A502E0490704D511A5B0
:10588000012401E0AFF3008000210A2206F1240781
:1058900009E0B0FBF2FCB0FBF2F302FB1C0030307D
:1058A00078541846491C0028F3D123462A4630462E
:1058B000BDE8F04100F0F7B9000000002D00000045
:1058C0002B000000200000002DE9F05F894604460F
:1058D0004FF0000ADFF824B1FB44C0F820A02046B6
:1058E000E168884700287DD0252806D0D4E9012129
:1058F0009047206A401C2062F1E700255F46204661
:10590000E16888472028064607DB312E05D2B81902
:1059100010F8200C08B10543F1E7A80701D525F0E0
:105920000405C4F81CA00027C4F818A02A2E09D02A
:10593000304600F0BEFC38B304EB8708303EC8F8B0
:10594000186019E059F8041B204604EB87029161A6
:10595000E1688847012F064618D1E069002820DA5F
:1059600025F020051DE0D8F8180000EB800006EBBC
:1059700040003038C8F818002046E16888470646DD
:1059800000F097FC0028EED1012F0AD02E2E08D16E
:105990002046E16888477F1C0646022F45F0200517
:1059A000C4DBA069002803DA404245F00105A0618C
:1059B000E80701D025F01005A6B1A6F1410019288D
:1059C00002D8203645F400654A4631462046256017
:1059D0004D46FAF7E7FB60B1012807D0ED1D25F031
:1059E000070000E007E000F1080978E705F1040985
:1059F00075E730467AE7206ABDE8F09F361500006B
:105A00000FB400B58DB010A9099000910B904FF024
:105A1000FF300A9000200C90064878440690064813
:105A200078446A4607900F9909A800F0C7F90DB0AD
:105A30005DF814FBBF030000D70300002DE9FF5FF2
:105A40001D464FF0FF3B91464FF000085F46D5E9F9
:105A50000146A96901987F1C8847296A82468847C0
:105A60000028F6D1BAF1FF3F0CD0002E24F4C06418
:105A700019DD600614D5BAF12B0F09D0BAF12D0F3C
:105A80000ED103E0584604B0BDE8F09F44F48064B2
:105A9000A96901987F1C8847761E8246002E02DD88
:105AA000BAF1300F03D0B9F1000F26D032E0A96966
:105AB000761E01987F1C44F400748847002E8246AD
:105AC00005DDBAF1780F06D0BAF1580F03D0B9F15D
:105AD000000F10D01EE0B9F1000F02D0B9F1100F85
