:020000040800F2
:100000005821002091270008E7010008E9010008B5
:10001000ED010008F1010008F501000800000000F2
:10002000000000000000000000000000F9010008CE
:10003000FB01000800000000FD010008F548000871
:10004000AB270008AB270008AB270008AB27000848
:10005000AB270008AB270008AB270008AB27000838
:10006000AB270008AB270008AB270008AB27000828
:10007000AB270008AB270008AB270008AB27000818
:10008000AB270008AB270008AB270008AB27000808
:10009000AB270008AB270008AB270008AB270008F8
:1000A000AB270008C54D0008AB270008214E00080B
:1000B0002B4C0008BF4C0008AB270008AB270008FA
:1000C000AB270008AB270008AB270008AB270008C8
:1000D000AB27000825310008AB2700084132000893
:1000E000AB270008AB270008AB270008AB270008A8
:1000F000AB270008AB270008AB270008AB27000898
:10010000AB270008AB270008AB270008AB27000887
:10011000AB270008AB270008AB270008AB27000877
:10012000AB270008AB270008AB270008AB27000867
:1001300000F002F800F048F80AA090E8000C8244B1
:100140008344AAF10107DA4501D100F03DF8AFF28E
:10015000090EBAE80F0013F0010F18BFFB1A43F0A5
:10016000010318471C7400003C740000103A24BFBF
:1001700078C878C1FAD8520724BF30C830C144BF0C
:1001800004680C607047000000230024002500264E
:10019000103A28BF78C1FBD8520728BF30C148BFEA
:1001A0000B607047642905F0E586002070471FB595
:1001B00006F0C6FB04000020002106F013FC401CE2
:1001C00060601FBD10B510BD06F07EFB1146FFF745
:1001D000EEFF04F040FB06F0A5FB03B4FFF7F2FFCF
:1001E00003BC06F0F1FB704700BFFEE700BFFEE76F
:1001F00000BFFEE700BFFEE7704770477047000092
:100200000CB50020019000906C48006840F48030EC
:100210006A49086000BF6948006800F40030009037
:100220000198401C0190009818B90198B0F5A06F92
:10023000F1D16248006800F4003010B10120009054
:1002400001E0002000900098012843D15C4800683C
:1002500040F010005A4908600846006820F003008A
:1002600008600846006840F0020008605348406893
:10027000524948600846406848600846406840F473
:10028000806048600846406820F47C10486008465A
:10029000406840F4E81048600846006840F080700C
:1002A000086000BF4548006800F000700028F9D0E1
:1002B0004248406820F003004049486008464068D2
:1002C00040F00200486000BF3C48406800F00C006D
:1002D0000828F9D10CBD10B5FFF792FF10BD10B57D
:1002E0003648006840F0010034490860084640681C
:1002F000344908403149486008460068324908409E
:100300002E4908600846006820F4802008600846EE
:10031000406820F4FE0048604FF41F008860FFF73B
:10032000DAFF4FF000602949086010BD10B50021C8
:1003300000200022214B5B6803F00C0121B104294D
:1003400006D0082928D107E0214B224C236027E062
:100350001F4B204C236023E0184B5B6803F47010A4
:10036000164B5B6803F48032022303EB904022B902
:10037000194B4343174C23600DE0104B5B6803F4AB
:10038000003323B1144B4343124C236003E0104B62
:100390004343104C236003E00D4B0E4C236000BF21
:1003A00000BF064B5B68C3F303130C4CE15C094BC5
:1003B0001B68CB40074C236010BD000000100240BA
:1003C000002002400000FFF8FFFFF6FE08ED00E00D
:1003D00000127A000000002000093D000400002007
:1003E00010B50446CC48844208D10121042000F015
:1003F0002DFB0021042000F029FB46E0C748844281
:1004000008D10121082000F021FB0021082000F084
:100410001DFB3AE0C248844208D10121102000F0BF
:1004200015FB0021102000F011FB2EE0BD48844296
:1004300008D10121202000F009FB0021202000F03C
:1004400005FB22E0B848844208D10121402000F099
:10045000FDFA0021402000F0F9FA16E0B34884428A
:1004600008D10121802000F0F1FA0021802000F065
:10047000EDFA0AE0AE48844207D10121801500F070
:10048000E5FA0021A01500F0E1FA10BD10B5012138
:10049000084600F0DBFA0021012000F0D7FA10BD79
:1004A0002DE9F0410246002500260020002300240B
:1004B000002791F803C00CF00F0591F803C00CF071
:1004C000100CBCF1000F03D091F802C04CEA0505F6
:1004D00091F800C0BCF1000F31D0146800202BE06F
:1004E0004FF0010C0CFA00F3B1F800C00CEA03065F
:1004F0009E4220D183004FF00F0C0CFA03F7BC434F
:1005000005FA03FC4CEA040491F803C0BCF1280F7F
:1005100006D14FF0010C0CFA00FCC2F814C00AE03E
:1005200091F803C0BCF1480F05D14FF0010C0CFA53
:1005300000FCC2F810C0401C0828D1D31460B1F8E8
:1005400000C0BCF1FF0F34DD546800202EE000F144
:10055000080C4FF0010808FA0CF3B1F800C00CEADF
:1005600003069E4221D183004FF00F0C0CFA03F7D3
:10057000BC4305FA03FC4CEA040491F803C0BCF147
:10058000280F05D100F1080C08FA0CF8C2F8148005
:1005900091F803C0BCF1480F07D100F1080C4FF0EF
:1005A000010808FA0CF8C2F81080401C0828CED3C5
:1005B0005460BDE8F0814FF6FF7101800221817027
:1005C0000421C17070470246002093680B400BB1B4
:1005D000012000E0002070470146886880B2704723
:1005E00002460020D3680B400BB1012000E0002040
:1005F00070470146C86880B2704701617047416129
:1006000070470AB1016100E041617047C160704705
:100610004FF480320A43826181618261826982691A
:10062000704702460020434B18684FF6807318400D
:1006300040EA021008433F4B186070473E49C861CA
:100640007047F0B50A46002300240021002500F081
:100650000046B6F1004F02D1364EF16901E0354E49
:100660007168C0F3034583B200F44016B6F5401F2D
:1006700008D121F070612F4E766826F070662D4FFC
:100680007E6012E000F48016B6F5801F06D10326C6
:1006900006FA05F4A14341F0706106E0460D36010B
:1006A00003FA06F6B14341F0706122B1460D3601FE
:1006B00003FA06F6314300F00046B6F1004F02D1CE
:1006C0001C4EF16101E01B4E7160F0BD30B500229F
:1006D0008B071C0F0F2303FA04F2164B08338C1000
:1006E00053F824309343134C08348D1044F82530CC
:1006F00023468C1053F824308C07240F00FA04F49E
:1007000023430C4C08348D1044F8253030BD0A4981
:10071000DC3108607047000000080140000C014017
:10072000001001400014014000180140001C01406D
:10073000002001400000014000002042DF48006826
:1007400040F00100DD49086008464068DC49084087
:10075000DA49486008460068DA490840D749086025
:100760000846006820F4802008600846406820F4AD
:10077000FE0048604FF41F0088607047CF49096849
:1007800021F48031CD4A11601146096821F480219D
:100790001160B0F5803F03D0B0F5802F0ED106E098
:1007A000C649096841F48031C44A116007E0C34971
:1007B000096841F4A021C14A116000E000BF00BFF8
:1007C000704710B501460022002300204A11012A7B
:1007D00002D1BA4C236806E0022A02D1B74C236A40
:1007E00001E0B64C636A01F01F02012494401C40F2
:1007F0000CB1012000E0002010BD38B500200090B1
:100800000024002500BF3120FFF7DBFF05460098DC
:10081000401C00900098B0F5A06F01D0002DF2D0E0
:100820003120FFF7CEFF08B1012400E0002420466C
:1008300038BD01460020A14A106820F0F80040EAC7
:10084000C10010607047A049086070470246002050
:100850009A4B586820F47C1042EA01031843974BE6
:100860005860704798490866704701460020934ACF
:10087000506820F003000843506070478F4840687C
:1008800000F00C007047014600208C4A506820F0B0
:10089000F00008435060704701460020874A5068C6
:1008A00020F4E06008435060704701460020834A0E
:1008B000506820F4605040EAC1005060704729B190
:1008C0007E4A527A02437D4B5A7204E07B4A527A46
:1008D00082437A4B5A7270477B49D831086070471F
:1008E00001460020754A506820F44040084350609B
:1008F00070470021714A20321170704A82F820102E
:10090000012802D004280AD104E001216B4A2032D8
:10091000117005E00521694A2032117000E000BF26
:1009200000BF70476949086070476449096A01431C
:10093000624A11627047654944390860704730B5B2
:1009400000210022002400235C4D6D6805F00C019D
:1009500021B1042905D0082923D105E05C4D0560AB
:1009600022E05B4D05601FE0544D6D6805F4701288
:10097000524D6D6805F48034022505EB92421CB996
:10098000544D554305600BE04C4D6D6805F4003542
:100990001DB1504D5543056002E04D4D5543056076
:1009A00002E04B4D056000BF00BF444D6D6805F08F
:1009B000F0010909484D6B5C0568DD4045603F4D1D
:1009C0006D6805F4E061090A434D6B5C4568DD40E4
:1009D00085603A4D6D6805F46051C90A3E4D6B5C07
:1009E0004568DD40C560354D6D6805F44041890BB3
:1009F0003A4D6B5CC568B5FBF3F5056130BD29B1B7
:100A00002E4A526902432D4B5A6104E02B4A526927
:100A100082432A4B5A61704729B1284A926902439E
:100A2000264B9A6104E0254A92698243234B9A61DE
:100A3000704729B1214AD2690243204BDA6104E0B0
:100A40001E4AD26982431D4BDA61704729B11B4AA5
:100A5000D2680243194BDA6004E0184AD268824334
:100A6000164BDA60704729B1144A12690243134BDE
:100A70001A6104E0114A12698243104B1A617047EF
:100A800012494039086070470F49C86470470B49E4
:100A9000C87170470948406A40F080700749486251
:100AA000704701460020054A92680A400AB10120B9
:100AB00000E0002070470149887270470010024032
:100AC0000000FFF8FFFFF6FE0000424280044242B1
:100AD00000127A0000093D001400002024000020CC
:100AE00031490143314A1160704770B5002100233C
:100AF0000F22C47804B32D4C246804F4E064C4F5D8
:100B0000E064210AC1F10403CA40447804FA03F105
:100B10008478144021430901254C0678A1550478B6
:100B200004F01F050124AC4005786D11AD0005F1FE
:100B3000E025C5F8004109E0047804F01F05012410
:100B4000AC401C4D0678761145F8264070BD1A4A17
:100B50000A400243154B1B1F1A60704739B1134AF4
:100B6000121D12680243114B1B1D1A6006E00F4A4A
:100B7000121D126882430D4B1B1D1A60704704281A
:100B800008D14FF0E021096941F004014FF0E02263
:100B9000116107E04FF0E021096921F004014FF0F5
:100BA000E0221161704700000000FA050CED00E042
:100BB00000E400E080E100E080FFFF1F10B5044684
:100BC000FB48844209D101218803FFF73FFF002140
:100BD0004FF48040FFF73AFF32E0F648844209D1F3
:100BE00001214804FFF73FFF00214FF40030FFF7D9
:100BF0003AFF25E0F048844209D101218804FFF73B
:100C000032FF00214FF48020FFF72DFF18E0EB4862
:100C1000844209D10121C804FFF725FF00214FF4C8
:100C20000020FFF720FF0BE0E548844208D10121B6
:100C30000805FFF718FF00214FF48010FFF713FF9E
:100C400010BD2DE9F04786B005460E460024A246A9
:100C500000BFA1460027B08900B100BF2F462C8AF3
:100C60004CF6FF700440F08804432C82AC894EF6A9
:100C7000F3100440B0883189084371890843044364
:100C8000AC81AC8A4FF6FF400440B0890443AC828B
:100C900001A8FFF754FEC648874202D1DDF810A034
:100CA00001E0DDF80CA0A88900F4004040B10AEB97
:100CB000CA0000EB0A1031684900B0FBF1F807E008
:100CC0000AEBCA0000EB0A1031688900B0FBF1F8AA
:100CD0006420B8FBF0F004012009642101FB1089B5
:100CE000A88900F4004040B1322000EBC900B0FBFD
:100CF000F1F000F00700044308E0322000EB091097
:100D00006421B0FBF1F000F00F0004432C8106B029
:100D1000BDE8F0874FF41651016000218180C18049
:100D200001810C21418100218181704710B502466B
:100D30000020108A4FF2FF0318400B884C88234391
:100D40008C882343CC8823431843108210BD002194
:100D5000018041808180C180704721B1828942F445
:100D60000052828104E082894DF6FF731A4082812D
:100D70007047F0B50346002400260025002040F609
:100D80006A17B94200D100BF1846C1F3421401F0FE
:100D90001F06012707FA06F5012C01D10C3004E0EB
:100DA000022C01D1103000E014301AB107682F4333
:100DB000076002E00768AF430760F0BD1AB1838A9D
:100DC0000B43838202E0838A8B4383827047028ACB
:100DD0004FF6F0731A400282028A0A430282704779
:100DE00082894FF2FF731A40828182890A4382818D
:100DF000704721B1828942F00202828104E0828937
:100E00004FF6FD731A4082817047028A4FF6DF73F6
:100E10001A400282028A0A430282704721B1028A82
:100E200042F48042028204E0028A4BF6FF731A40C9
:100E300002827047C1F308028280704701468888A9
:100E4000C0F308007047818941F00101818170473A
:100E5000028BD2B20283028B42EA012202837047E4
:100E6000028B02F47F420283028B0A4302837047A3
:100E700021B1828A42F02002828204E0828A4FF607
:100E8000DF731A408282704721B1828A42F01002D9
:100E9000828204E0828A4FF6EF731A4082827047A2
:100EA00021B1828A42F00802828204E0828A4FF6EF
:100EB000F7731A408282704721B1828942F400425E
:100EC000828103E08289C2F30E028281704721B1E0
:100ED000828A42F40062828204E0828A4FF2FF73C7
:100EE0001A4082827047828A4FF6FB731A408282D0
:100EF000828A0A438282704721B1828A42F00202CA
:100F0000828204E0828A4FF6FD731A408282704723
:100F100002460020B1F5007F00D100BF13880B40CE
:100F20000BB1012000E00020704701F40072B2F51F
:100F3000007F00D100BFCA430280704770B50246EF
:100F4000002400230025002040F66A16B14200D19B
:100F500000BFC1F3421501F01F03012606FA03F397
:100F6000012D02D19689334006E0022D02D1168A66
:100F7000334001E0968A33400C12012606FA04F44D
:100F80001688344013B10CB1012000E0002070BD80
:100F900010B50022002340F66A14A14200D100BF20
:100FA0000A1201249440A3B2DC43048010BD000067
:100FB000003801400044004000480040004C004020
:100FC0000050004010B50446FE48844208D101217B
:100FD000C014FFF73BFD0021E014FFF737FDC4E02C
:100FE000B4F1804F08D101210846FFF73CFD0021F4
:100FF0000120FFF738FDB8E0F348844208D1012111
:101000000220FFF730FD00210220FFF72CFDACE0AD
:10101000EE48844208D101210420FFF724FD00217D
:101020000420FFF720FDA0E0E948844208D1012117
:101030000820FFF718FD00210820FFF714FD94E0B9
:10104000E448844208D101211020FFF70CFD002163
:101050001020FFF708FD88E0DF48844208D1012115
:101060002020FFF700FD00212020FFF7FCFC7CE0A2
:10107000DA48844208D101214014FFF7E7FC00213F
:101080006014FFF7E3FC70E0D548844209D10121E8
:10109000C804FFF7DBFC00214FF40020FFF7D6FC6B
:1010A00063E0D048844209D101210805FFF7CEFC56
:1010B00000214FF48010FFF7C9FC56E0CA48844273
:1010C00009D101214805FFF7C1FC00214FF40010B0
:1010D000FFF7BCFC49E0C548844208D1012140200B
:1010E000FFF7C1FC00214020FFF7BDFC3DE0C048F8
:1010F000844208D101218020FFF7B5FC0021802027
:10110000FFF7B1FC31E0BB48844208D101218015D2
:10111000FFF7A9FC0021A015FFF7A5FC25E0B648C4
:10112000844209D101210804FFF790FC00214FF40B
:101130008030FFF78BFC18E0B048844209D10121D0
:101140004804FFF783FC00214FF40030FFF77EFCDA
:101150000BE0AB48844208D101218804FFF776FCFC
:1011600000214FF48020FFF771FC10BD002202889F
:10117000944B98420ED0994B98420BD0B0F1804FCF
:1011800008D0914B984205D0904B984202D0904B9A
:10119000984204D14FF68F731A404B881A438D4BF7
:1011A000984207D08C4B984204D04FF6FF431A4028
:1011B000CB881A4302808B8883850B880385814BFB
:1011C00098420BD0854B984208D08B4B984205D063
:1011D0008A4B984202D08A4B984201D10B7A0386FF
:1011E00001238382704770B5002400220023058C00
:1011F0004FF6FE7635400584028C8388048B4FF6CB
:101200008F752C40B51E2C400D882C43751E2A402E
:101210000D892A434D882A436A4DA8420BD06F4D51
:10122000A84208D0744DA84205D0744DA84202D0FF
:10123000734DA84213D14FF6F7752A404D892A43C2
:101240004FF6FB752A408D882A434FF6FF652B40E9
:101250004FF6FF552B408D892B43CD892B4383803F
:101260000483CD888586028470BD70B50024002279
:101270000023058C4FF6EF7635400584028C838879
:10128000048B48F6FF752C404FF6FF452C400D8827
:101290004FF6FF7606EA05252C434FF6DF752A4008
:1012A0000D8906EA05152A434D8806EA05152A43E5
:1012B000444DA84202D0494DA8421DD14FF67F753A
:1012C0002A404D894FF6FF7606EA05152A434FF668
:1012D000BF752A408D8806EA05152A434FF6FF356B
:1012E0002B404FF2FF752B408D8906EA85052B4375
:1012F000CD8906EA85052B4383800483CD88058745
:10130000028470BD70B5002400220023058C4FF6C6
:10131000FF6635400584028C8388848B4FF68F7579
:101320002C404FF6FC752C400D882C434FF6FF5592
:101330002A400D894FF6FF7606EA05252A434D8897
:1013400006EA05252A431F4DA84202D0234DA84294
:101350001DD14FF2FF752A404D894FF6FF7606EA00
:1013600005252A434FF6FF352A408D8806EA0525D4
:101370002A434EF6FF752B404DF6FF752B408D89A5
:1013800006EA05152B43CD8906EA05152B43838014
:101390008483CD888587028470BD70B500220023C8
:1013A0000024058C4EF6FF7635400584038C848836
:1013B000828B48F6FF752A404FF6FF452A400D887C
:1013C00020E00000002C0140000400400008004024
:1013D000000C0040001000400014004000340140A8
:1013E000004C0140005001400054014000180040F2
:1013F000001C00400020004000400140004401402B
:10140000004801404FF6FF7606EA05252A434DF6CF
:10141000FF752B400D8906EA05352B434D8806EAFA
:1014200005352B43FA4DA84202D0FA4DA84208D107
:101430004BF6FF752C408D894FF6FF7606EA851531
:101440002C4384808283CD88A0F84050038470BDF3
:10145000828B4FF2FF331A408283828B4FF6FF73E9
:1014600003EA01231A4382837047F0B50C46154600
:10147000002200210026078C4EF6FF7C07EA0C07AD
:101480000784828B018C4FF6FF7707EA043640F61B
:10149000FF473A404FF6FF7707EA05273A434FF6F2
:1014A000FF7707EA03373A43D94FB8420ED0D94FF6
:1014B000B8420BD0B0F1804F08D0D74FB84205D01A
:1014C000D64FB84202D0D64FB84206D14DF6FF777C
:1014D000394046F48057394305E047F6FF57394015
:1014E00044F48057394382830184F0BD828B4FF6E8
:1014F000F3731A408283828B0A4382837047F0B56C
:101500000C461546002200210026078C4FF6FF6C82
:1015100007EA0C070784828B018C4FF6FF7707EAF6
:1015200004264FF60C773A404FF6FF7707EA031789
:101530002F433A43B64FB8420ED0B64FB8420BD005
:10154000B0F1804F08D0B44FB84205D0B34FB84285
:1015500002D0B34FB84206D14FF6FF57394046F498
:101560008077394305E04FF2FF57394044F48077E4
:10157000394382830184F0BD028B4FF2FF331A405E
:101580000283028B4FF6FF7303EA01231A4302839F
:101590007047F0B50C461546002200210026078C46
:1015A0004FF6EF7C07EA0C070784028B018C4FF69D
:1015B000FF7707EA041640F6FF473A404FF6FF77F9
:1015C00007EA03373A434FF6FF7707EA05273A431E
:1015D0008F4FB8420ED08F4FB8420BD0B0F1804F32
:1015E00008D08D4FB84205D08C4FB84202D08C4FF6
:1015F000B84206D14FF6DF77394046F0100739433D
:1016000005E04FF65F77394044F010073943028315
:101610000184F0BD028B4FF6F3731A400283028BF4
:101620000A4302837047F0B50C461546002200219C
:10163000068C4FF6FE773E400684028B018C4FF6F7
:101640000C7632407E1C06EA03162E433243704E5F
:10165000B0420ED06F4EB0420BD0B0F1804F08D0E8
:101660006D4EB04205D06D4EB04202D06C4EB042CD
:1016700006D14FF6FD76314044F00106314305E0D6
:101680004FF6F576314044F0010631430283018480
:10169000F0BD70B505460C465D4885420ED05D48EC
:1016A00085420BD0B5F1804F08D05B48854205D00C
:1016B0005A48854202D05A48854200D100E000BF16
:1016C000208850B92389A28861882846FFF7ABFF9C
:1016D000E1882846FFF79EFF25E0208804280AD1EC
:1016E0002389A28861882846FFF753FFE1882846AE
:1016F000FFF742FF17E0208808280AD12389A28833
:1017000061882846FFF7FBFEE1882846FFF7EEFEDA
:1017100009E02389A28861882846FFF7A6FEE188B0
:101720002846FFF795FE70BD2DE9F04105460C46B1
:1017300000260127608808B9022600E00026A0885C
:10174000012801D1022700E001272088A0B92389C0
:10175000A28861882846FFF766FFE1882846FFF7E0
:1017600059FF23893A4631462846FFF712FFE188A0
:101770002846FFF701FF13E02389A28861882846E5
:10178000FFF707FFE1882846FFF7F6FE23893A4670
:1017900031462846FFF747FFE1882846FFF73AFF22
:1017A000BDE8F0810A884B881A438B881A43CB889E
:1017B0001A430B891A434B891A438B891A43A0F8A1
:1017C000442070474FF6FF71818000210180C18065
:1017D0004180017270470021018041808180C18079
:1017E000018141818181C181704700210180418057
:1017F000012181800021C180018170470021018089
:1018000041808180C18001814181818170470000D8
:10181000002C01400034014000040040000800405A
:10182000000C004021B1028842F00102028004E075
:1018300002884FF6FE731A400280704731B1B0F84B
:10184000442042F40042A0F8442005E0B0F84420CF
:10185000C2F30E02A0F8442070471AB183890B43EB
:10186000838102E083898B43838170478182704743
:1018700041EA0203A0F8483070471AB183890B434C
:10188000838102E083898B438381704701894FF60E
:10189000F8721140018170470A46002101894FF614
:1018A0008F73194011430181704730B504460D46CE
:1018B00029462046FFF7F0FF208940F007002081ED
:1018C00030BD2DE9F04104460D4616461F46602DF9
:1018D00006D13B46012231462046FFF75AFE05E07D
:1018E0003B46012231462046FFF79DFE2946204611
:1018F000FFF7D2FF208940F007002081BDE8F0818A
:1019000030B50C4600210189C9B24FF6FF7505EAD2
:101910000325154325432943018130BD2DE9F041BD
:1019200005460E4617469846002443463A46314639
:101930002846FFF7E5FF2C894FF6F870044044F085
:1019400007044FF68F70044044F070042C81BDE80A
:10195000F081F0B504460D4616461F463B4632461A
:1019600029462046FFF7CCFF208940F480402081A3
:10197000F0BD0185828270470A46002101884FF63A
:101980008F731940114301807047F0B50C4615461E
:101990001E460021002200230189028B038C4FF692
:1019A000F877394021434FF6FC473A4040F201179F
:1019B0003A434FF6DD773B404FF6FF7707EA0617CD
:1019C0002F433B43018102830384F0BD0A4600217B
:1019D000018B4FF68F7319401143018370470A46FC
:1019E0000021018B48F6FF7319404FF6FF7303EA9D
:1019F00002231943018370470A460021818B4FF669
:101A00008F7319401143818370470A460021818BEF
:101A100048F6FF7319404FF6FF7303EA0223194398
:101A20008183704721B1028842F08002028004E085
:101A300002884FF67F731A400280704721B1828876
:101A400042F00402828004E082884FF6FB731A4061
:101A50008280704721B1828842F00802828004E0CF
:101A600082884FF6F7731A408280704721B18288CE
:101A700042F00102828004E082884FF6FE731A4031
:101A8000828070470A460021018B4FF6F773194098
:101A90001143018370470A460021018B4FF2FF7307
:101AA00019404FF6FF7303EA02231943018370477D
:101AB0000A460021818B4FF6F77319401143818349
:101AC00070470A460021818B4FF2FF7319404FF691
:101AD000FF7303EA02231943818370470A460021FA
:101AE000018B4FF6FB7319401143018370470A467F
:101AF0000021018B4FF6FF3319404FF6FF7303EAC5
:101B000002231943018370470A460021818B4FF657
:101B1000FB7319401143818370470A460021818B72
:101B20004FF6FF3319404FF6FF7303EA02231943C0
:101B3000818370470A460021018B4FF67F7319405D
:101B40001143018370470A460021018BC1F30E0146
:101B50004FF6FF7303EA02231943018370470A46D5
:101B60000021818B4FF67F731940114381837047A9
:101B70000A460021818BC1F30E014FF6FF7303EA81
:101B800002231943818370470A460021018C4FF6D6
:101B9000FD7319401143018470470A460021018CEE
:101BA0004FF6F77319401143018470470A4600212C
:101BB000018C4FF6DF7319404FF6FF7303EA0213EF
:101BC0001943018470470A460021018C4FF67F7348
:101BD00019404FF6FF7303EA02131943018470475B
:101BE0000A460021018C4FF6FF5319404FF6FF7350
:101BF00003EA02231943018470470A460021018C3D
:101C00004FF2FF7319404FF6FF7303EA02231943A3
:101C1000018470470A460021018C4DF6FF7319407C
:101C20004FF6FF7303EA023319430184704730B55E
:101C3000002301248C40A3B2048C9C430484048CB4
:101C400002FA01F5ADB22C43048430BD30B5002357
:101C500004248C40A3B2048C9C430484048C02FAB8
:101C600001F5ADB22C43048430BD70B503460020AD
:101C700000241846183001258D40ACB21D8CA543B8
:101C80001D8409B1082909D100EB6100056825F020
:101C9000700505600568154305600EE00D1FC5F36E
:101CA0004E052844056825F4E045056005684FF6B3
:101CB000FF7606EA02263543056070BD21B1028831
:101CC00042F00202028004E002884FF6FD731A40DF
:101CD0000280704721B1028842F00402028004E0D1
:101CE00002884FF6FB731A400280704721B1828848
:101CF00042F08002828004E082884FF67F731A40AF
:101D00008280704702884FF6F7731A40028002887B
:101D10000A430280704782884FF68F731A40828090
:101D200082880A438280704702894FF6F8731A400E
:101D3000028102890A430281704702894FF67F734C
:101D40001A40028102890A430281704781847047E8
:101D5000818570478186704701877047818770470A
:101D6000A0F84010704702884FF6FF431A400280E7
:101D700002880A43028070470146888E70470146F8
:101D8000088F70470146888F70470146B1F84000C0
:101D900070470146888C70470146088D704702469F
:101DA0000020138A0B400BB1012000E00020704797
:101DB000CA430282704730B5024600200023002447
:101DC000158A05EA0103958905EA010413B10CB1EE
:101DD000012000E0002030BDCA43028270470000AD
:101DE00010B50446BE48844208D101218014FEF794
:101DF0002DFE0021A014FEF729FE16E0B94884420A
:101E000008D101210014FEF72EFE00212014FEF758
:101E10002AFE0AE0B448844207D10121C013FEF72C
:101E200022FE0021E013FEF71EFE10BD10B50022B9
:101E3000028802F441520B884C8823438C88234348
:101E4000CC8823430C8923434C8923438C89234327
:101E5000CC8923431A430280838B4FF2FF742340C3
:101E600083830B8A038210BD2DE9F04F85B00546B0
:101E70000C464FF0000902274FF000084FF0010B0D
:101E80000026B246A88B4FF240010840A8830220EA
:101E90002884B5F81C90A068022801D100BF38E062
:101EA000A08810B94FF0010B01E04FF0020B8D48F4
:101EB000854200D100E000BF6846FEF740FDDDF836
:101EC00000A0E088B0F5007F0AD14FEA1A2000EBAD
:101ED00080004000A168B0FBF1F0401D86B20BE02D
:101EE0004FEA4B10BAFBF0F000EB80004000A16815
:101EF000B0FBF1F0401D86B20A20B6FBF0F606F00A
:101F00000108A6EB0800C0F34F074FF6FF7000EA88
:101F10000828022F01DBFF2F02DD02274FF0000807
:101F2000E08840EA080038432884A088A189084353
:101F3000618808432188084340F4006040EA0909A9
:101F4000A5F81C9005B0BDE8F08F0021018041800C
:101F50008180C180018141818181C181072101820C
:101F600070470021018041808180C1800221816011
:101F700000218181704721B1028842F04002028035
:101F800004E002884FF6BF731A400280704721B107
:101F9000828B42F48062828304E0828B4FF6FF33AF
:101FA0001A408283704730B5002400230C110125AC
:101FB000A540ABB21AB185881D43858002E08588B3
:101FC0009D43858030BD1AB183880B43838002E036
:101FD00083888B438380704781817047014688895D
:101FE00070474FF6FF62914204D0028842F480723B
:101FF000028004E002884FF6FF631A4002807047B7
:1020000021B1828842F00402828004E082884FF687
:10201000FB731A408280704702884FF2FF731A40A8
:10202000028002880A4302807047018841F480518F
:102030000180704721B1028842F40052028004E01E
:1020400002884DF6FF731A40028070470246002056
:10205000012901D0108B00E0908A70470146088A60
:102060007047B1F5804F04D1028842F4804202806B
:1020700004E002884BF6FF731A4002807047024664
:10208000002013890B400BB1012000E000207047B5
:10209000CA4302817047F0B50246002000240023A5
:1020A000002501F00F070126BE40B4B20B11012636
:1020B0009E40B3B2968806EA03051689264016B1FB
:1020C0000DB1012000E00020F0BD10B5002201F0AC
:1020D0000F040123A3409AB2D343038110BD000033
:1020E0000030014000380040003C004010B504467C
:1020F000FA48844208D101214015FEF7A7FC0021CF
:102100006015FEF7A3FC17E0F548844208D10121D1
:102110000015FEF79BFC00212015FEF797FC0BE055
:10212000F048844208D10121C803FEF78FFC00214A
:102130004FF40040FEF78AFC10BD30B50246002087
:1021400000235068E84C20400D790C6844EA0524CF
:10215000204350609068E54C2040D1E902542C4364
:102160004D7944EA450420439060D06A20F4700021
:102170000C7C641EE4B2234340EA0350D06230BDBD
:1021800000210160017141718160C1600121017410
:10219000704721B1826842F00102826003E08268E8
:1021A00022F001028260704721B1826842F480729D
:1021B000826003E0826822F480728260704710B50A
:1021C0000023CBB21AB144681C43446002E0446867
:1021D0009C43446010BD816841F0080181607047F4
:1021E000014600208A6802F008020AB1012000E0DE
:1021F00000207047816841F004018160704701460A
:1022000000208A6802F004020AB1012000E00020E8
:10221000704721B1826842F4A002826003E08268C4
:1022200022F4A00282607047014600208A6802F40E
:1022300080020AB1012000E00020704710B50A4674
:1022400000210023416821F46041531E41EA4331DB
:10225000416010BD21B1426842F40062426003E077
:10226000426822F4006242607047F0B504460D46B1
:1022700000200021092D11DDE068A5F10A0606EB1A
:102280004607072606FA07F18843A5F10A0606EB7A
:10229000460603FA06F10843E0600CE0206905EB0E
:1022A0004507072606FA07F1884305EB450603FABA
:1022B00006F108432061072A0FDA606B561E06EB11
:1022C00086071F2606FA07F18843561E06EB860688
:1022D00005FA06F10843606322E00D2A0FDA206B4D
:1022E000D61F06EB86071F2606FA07F18843D61F7E
:1022F00006EB860605FA06F10843206310E0E06A63
:10230000A2F10D0606EB86071F2606FA07F18843A1
:10231000A2F10D0606EB860605FA06F10843E06217
:10232000F0BD21B1826842F48012826003E08268CD
:1023300022F48012826070470146C86C80B27047F8
:1023400066484C300068704721B1426842F48062B0
:10235000426003E0426822F480624260704721B12B
:10236000426842F48052426003E0426822F48052A4
:10237000426070470A460021816821F4E041114320
:102380008160704721B1826842F40042826003E0BC
:10239000826822F400428260704721B1826842F470
:1023A0000212826003E0826822F4021282607047A7
:1023B000014600208A6802F400120AB1012000E000
:1023C00000207047F0B50446154600200022002684
:1023D000092911DDE068A1F10A0707EB470C07277F
:1023E00007FA0CF29043A1F10A0707EB470703FA3B
:1023F00007F21043E0600CE0206901EB410C072775
:1024000007FA0CF2904301EB410703FA07F210437D
:102410002061A06BC0F30156EF1C06F1010CA7EB85
:102420000C0707EB870C1F2707FA0CF29043EF1CF1
:1024300006F1010CA7EB0C0707EB870701FA07F27F
:102440001043A063F0BD10B50A4600210023816B44
:1024500021F44011531E41EA0351816310BD08B5B8
:10246000002300930090009B0B440093009B1A6094
:1024700008BD08B5024600200090009201F1280036
:10248000009B184400900098006880B208BD0A467E
:1024900000214168164B1940114341607047416269
:1024A000826270470A460021416821F01F011143F2
:1024B0004160704740B109490831096841F40001A1
:1024C000064A0832116007E004490831096821F41E
:1024D0000001024A083211607047000000240140E8
:1024E00000280140003C0140FFFEF0FFFDF7F1FF36
:1024F000FFFD3FFF0246002013680B400BB1012097
:1025000000E000207047CA430260704770B5024681
:102510000020002300240B125568CEB205EA060401
:1025200015681D4015B10CB1012000E0002070BD00
:1025300000220A12D34303607047000001684FF67F
:10254000FE72114001600021016041608160C16044
:102550008D49884208D18C490839496841F00F01FA
:10256000894A083A51608AE087491431884208D183
:1025700085490839496841F0F001834A083A5160B9
:102580007DE081492831884208D17F49083949686E
:1025900041F470617C4A083A516070E07A493C31FC
:1025A000884208D178490839496841F47041764A2F
:1025B000083A516063E074495031884208D1724949
:1025C0000839496841F470216F4A083A516056E071
:1025D0006D496431884208D16B490839496841F432
:1025E0007001694A083A516049E067497831884288
:1025F00008D165490839496841F07061624A083A72
:1026000051603CE06149884206D1011F096841F0F0
:102610000F01021F116032E05C491431884208D179
:102620005A49091F096841F0F001584A121F116008
:1026300025E056492831884208D15449091F0968C4
:1026400041F47061514A121F116018E04F493C314A
:10265000884208D14D49091F096841F470414B4A2D
:10266000121F11600BE049495031884207D1474998
:10267000091F096841F47021444A121F1160704714
:1026800010B50022026847F6F0739A430C6A8B6813
:1026900023430C6923434C6923438C692343CC694E
:1026A00023434C6A23438C6A23431A430260CB685A
:1026B00043600B6883604B68C36010BD00210160FC
:1026C00041608160C160016141618161C1610162FC
:1026D00041628162704721B1026842F001020260EA
:1026E00004E002684FF6FE731A40026070471AB1A8
:1026F00003680B43036002E003688B430360704789
:10270000416070470146486880B27047014600202A
:10271000002201F080531BB11C4B083B1A6802E0F9
:10272000194B083B1A6802EA01030BB1012000E0D3
:102730000020704700F0805119B11449091F08604A
:1027400002E0114908394860704701460020002224
:1027500001F080531BB10D4B083B1A6802E00A4B95
:10276000083B1A6802EA01030BB1012000E00020D7
:10277000704700F0805119B10449091F086002E058
:1027800001490839486070470800024008040240C7
:102790000948804709480047FEE7FEE7FEE7FEE7F5
:1027A000FEE7FEE7FEE7FEE7FEE7FEE70448054931
:1027B000054A064B70470000DF020008310100089F
:1027C000581B002058210020581D0020581D0020B3
:1027D00000B585B04148FFF789FC0020009001203A
:1027E0008DF804008DF805004FF460200290002061
:1027F000039001208DF8100069463848FFF79DFCD2
:102800004FF40040FEF76CF80723012205213348FE
:10281000FFF72BFD01213148FFF7C6FC01212F48AE
:10282000FFF7B7FC2D48FFF7D6FC00BF2B48FFF79A
:10283000D7FC0028FAD12948FFF7DCFC00BF274865
:10284000FFF7DDFC0028FAD101212448FFF7E1FC65
:1028500005B000BD00B58BB02148FFF76FFE1F48E3
:102860004C3000901F4801900020029001200390FE
:102870000020049080200590400006908000079082
:10288000202008900002099000200A906946144810
:10289000FFF7F6FE01211248FFF71DFF0BB000BD48
:1028A00008B501210846FEF7AAF801214FF401708E
:1028B000FEF7B2F82020ADF8000000208DF80300EC
:1028C00069460948FDF7ECFD08BD10B5FFF7E8FFC4
:1028D000FFF7C0FFFFF77CFF10BD000000240140A0
:1028E00008000240280000200008014070B505469D
:1028F000002405E0601CC4B2C82C01DD002070BDBE
:102900000221FE48FFF7BBFB0028F3D02946FB4815
:10291000FFF762FB002405E0601CC4B2C82C01DD97
:102920000020ECE70121F548FFF7A9FB0028F3D0D0
:10293000F248FFF753FBC0B2E1E710B50446ACB173
:102940004FF40050EE4908801820C870ED48FDF79C
:10295000A7FD4FF40051EB48FDF74FFE0121E7487A
:10296000FFF709FBFF20FFF7C1FF0EE00021E3485E
:10297000FFF701FB4FF40050E14908801020C870B8
:1029800003208870DF48FDF78BFD10BD002106E0B5
:102990000A2100BF0A1EA1F1010399B2FAD1021E59
:1029A000A0F1010398B2F3D1704710B50020D649C9
:1029B0008881D248FFF73AFA0121D048FFF7DBFAC5
:1029C00010BD08B501210820FEF726F84FF480500D
:1029D000ADF8000010208DF8030003208DF80200F0
:1029E0006946C848FDF75CFD4FF48051C548FDF7C6
:1029F00004FE4FF42040ADF8000018208DF80300CD
:102A00006946C048FDF74CFD4FF48040ADF800002A
:102A100048208DF803006946BA48FDF741FD4FF4A0
:102A20002041B848FDF7E9FD01218803FEF701F8D0
:102A30000020B54908804FF48270488000208880CB
:102A40000220C88001200881400248813820888106
:102A50000020C88107200882A848FFF7E7F9012174
:102A6000A648FFF788FAFF20FFF740FFFFF79DFF1A
:102A700008BD10B53020A4498881A048FFF7D6F9D9
:102A800001219E48FFF777FA10BD10B500240022FF
:102A90004FF480519B48FDF7B4FD9020FFF726FFCF
:102AA0000020FFF723FF0020FFF720FF0020FFF7A3
:102AB0001DFFFF20FFF71AFF44EA0024FF20FFF765
:102AC00015FF0443012211038E48FDF79AFD2046AD
:102AD00010BD10B5002400224FF480518948FDF745
:102AE00090FD0520FFF702FFFF20FFF7FFFE0446E1
:102AF000012211038348FDF784FD204610BD10B567
:102B0000044600224FF480517E48FDF77AFD0120F3
:102B1000FFF7ECFE2046FFF7E9FE0122110379489A
:102B2000FDF76FFD10BD10B500224FF480517548C0
:102B3000FDF767FD0620FFF7D9FE0122110371485A
:102B4000FDF75FFD10BD10B500224FF480516D48B8
:102B5000FDF757FD0420FFF7C9FE01221103694864
:102B6000FDF74FFD10BD10B5044600224FF4805113
:102B70006448FDF746FD0320FFF7B8FEC4F30740A5
:102B8000FFF7B4FEC4F30720FFF7B0FEE0B2FFF793
:102B9000ADFEFF20FFF7AAFE5C4908700122110379
:102BA0005848FDF72EFD5948007810BD2DE9F04139
:102BB00006460C46174600224FF480515148FDF757
:102BC00020FD0320FFF792FEC4F30740FFF78EFEBF
:102BD000C4F30720FFF78AFEE0B2FFF787FE002567
:102BE00005E0FF20FFF782FE7055681C85B2BD42EC
:102BF000F7DB012211034348FDF703FDBDE8F08137
:102C000010B500BFFFF765FF00F001000028F9D103
:102C100010BD2DE9F04107460C461646E0B2C0F55E
:102C20008078464500DD4646FFF77DFF00224FF4E1
:102C300080513448FDF7E5FC0220FFF757FEC4F34E
:102C40000740FFF753FEC4F30720FFF74FFEE0B243
:102C5000FFF74CFE002504E0785DFFF747FE681C97
:102C600085B2B542F8DB012211032648FDF7C9FC05
:102C7000FFF7C6FFBDE8F0812DE9F04107460E469B
:102C80001446F0B2C0F58075AC4200DC254612E077
:102C90002A4631463846FFF7BCFFAC4200D10BE074
:102CA0002F442E44601B84B2B4F5807F02DD4FF4C4
:102CB000807500E02546EBE700BFBDE8F08110B568
:102CC00004462403FFF72FFFFFF79AFF00224FF47B
:102CD00080510C48FDF795FC2020FFF707FEC4F358
:102CE0000740FFF703FEC4F30720FFF7FFFDE0B244
:102CF000FFF7FCFD01221103024809E00038004003
:102D00002A000020000C0140100100202E000020AD
:102D1000FDF777FCFFF774FF10BD2DE9F047814602
:102D20000F4616464FEA1738C7F30B0ACAF5805408
:102D3000A64200DC344644E04FEA08314FF48052AA
:102D40008A48FFF733FF002508E00AEB05008749B2
:102D5000085CFF2800D003E0681C85B2A542F4DBC4
:102D600000BFA54216DA4046FFF7A9FF002507E09D
:102D700019F8050005EB0A017C4A5054681C85B21D
:102D8000A542F5DB4FEA08314FF480527748FFF750
:102D900073FF04E0224639464846FFF76DFFA6421E
:102DA00000D10FE008F101084FF0000AA1442744C8
:102DB000301B86B2B6F5805F02DD4FF4805400E030
:102DC0003446B9E700BFBDE8F0872DE9F04107467A
:102DD0000C461546C4F30B00C0F58056B54200DD25
:102DE00035462A4621463846FFF746FFBDE8F081C2
:102DF0002DE9F04381B0ADF5805D80460F46164663
:102E00004FF00009C7F30B00C0F58054A64200DC68
:102E1000344644E04FEA17394FEA09314FF4805203
:102E200001A8FFF7C3FE002509E0C7F30B00284403
:102E300001A9085CFF2800D003E0681C85B2A54208
:102E4000F3DB00BFA54217DA4846FFF738FF00253D
:102E500008E018F80500C7F30B01294401AA5054F3
:102E6000681C85B2A542F4DB4FEA09314FF4805269
:102E700001A8FFF7AAFF04E0224639464046FFF7C3
:102E8000A4FFA64200D10BE0A0442744301B86B229
:102E9000B6F5805F02DD4FF4805400E03446B9E7B8
:102EA00000BF01B00DF5805DBDE8F08370B505464B
:102EB0000C46FFF738FE00224FF480512C48FDF7F6
:102EC000A0FB0220FFF712FDC4F30740FFF70EFD41
:102ED000C4F30720FFF70AFDE0B2FFF707FD28461D
:102EE000FFF704FD012211032148FDF78AFBFFF7DC
:102EF00087FE70BD10B5FFF716FEFFF781FE0022BA
:102F00004FF480511A48FDF77CFBC720FFF7EEFC19
:102F1000012211031648FDF774FBFFF771FE10BD87
:102F200010B500224FF480511148FDF76AFBB9201B
:102F3000FFF7DCFC012211030D48FDF762FB0320C3
:102F4000FFF724FD10BD10B500224FF48051084852
:102F5000FDF757FBAB20FFF7C9FC01221103044822
:102F6000FDF74FFB0320FFF711FD10BD22010020EC
:102F7000000C014010B588B00446012144F2040061
:102F8000FDF74AFDF848FDF719FE4FF40070ADF863
:102F90001C0003208DF81E0018208DF81F0007A9C3
:102FA000F248FDF77DFA4FF48060ADF81C00042074
:102FB0008DF81F0007A9ED48FDF772FA0394002071
:102FC000ADF81000ADF81200ADF81400ADF818001F
:102FD0000C20ADF816000020ADF80400ADF8060096
:102FE0004FF40070ADF808000020ADF80A0001A908
:102FF000DD48FDF79BFE03A9DB48FDF722FE4FF4F9
:10300000E060FDF76DFD25208DF8000001208DF8B2
:1030100001008DF802008DF803006846FDF765FD9C
:10302000012240F22551D048FDF7A3FE0121CE48F0
:10303000FDF793FE08B010BD10B586B0044601211F
:103040000820FDF7E9FC01218804FDF7F2FC4FF4AC
:103050008060ADF8140018208DF8170003208DF85B
:10306000160005A9C248FDF71BFA4FF40060ADF841
:10307000140004208DF8170005A9BD48FDF710FACB
:1030800001940020ADF80800ADF80A00ADF80C007E
:10309000ADF810000C20ADF80E0001A9B548FDF701
:1030A000D0FD27208DF8000001208DF801000320BD
:1030B0008DF8020001208DF803006846FDF715FD2C
:1030C000012240F22551AB48FDF753FE0121A948EA
:1030D000FDF743FE06B010BD10B504460BE014F832
:1030E000011BA148FDF7A6FE00BF80219E48FDF709
:1030F0000FFF0028F9D020780028F0D110BD10B5BE
:1031000004460BE014F8011B9A48FDF793FE00BF3C
:1031100080219848FDF7FCFE0028F9D0207800288F
:10312000F0D110BD10B540F225518F48FDF7F0FEEB
:1031300001287CD140F225518B48FDF729FF8A48B0
:10314000FDF77CFEC4B28C48007808B1002010BDA9
:103150008A480078012867D13C2C06D10420884990
:1031600008700020874908801CE085480078C8B9AD
:10317000242C03D101208249087010E0232C03D1B4
:1031800002207F4908700AE07B2C03D103207C4990
:10319000087004E03C2C02D104207949087000201A
:1031A00078490880774801880088401C754A10805B
:1031B0007548445472480078042809D13E2C07D140
:1031C000002071491288885401206B4908702BE057
:1031D0006B48007801280AD1212C08D100206A49C7
:1031E000684A128888540120634908701CE06448CA
:1031F000007802280AD1212C08D100216248614AB6
:103200001288815401205C4908700DE05C48007808
:10321000032809D17D2C07D100205B49594A128827
:1032200088540120544908705648008800E005E0A1
:10323000B0F5806F02DB002052490880002086E74D
:1032400010B540F225514B48FDF762FE01287CD1B4
:1032500040F225514748FDF79BFE4648FDF7EEFD3D
:10326000C4B24548007808B1002010BD434800783A
:10327000012867D13C2C06D1042041490870002068
:10328000424908801CE03E480078C8B9242C03D18C
:1032900001203B49087010E0232C03D1022038495B
:1032A00008700AE07B2C03D103203549087004E044
:1032B0003C2C02D104203249087000203349088098
:1032C000324801880088401C304A10802E484454FF
:1032D0002B480078042809D13E2C07D100202A4928
:1032E000128888540120244908702BE02448007873
:1032F00001280AD1212C08D100202349234A128811
:10330000885401201C4908701CE01D4800780228E0
:103310000AD1212C08D100211B481C4A1288815453
:103320000120154908700DE015480078032809D1DF
:103330007D2C07D100201449144A1288885401209A
:103340000D4908701148008800E005E0B0F5806F75
:1033500002DB00200D490880002086E710B50446F6
:103360002046FFF7B9FE10BD0038014000080140BB
:10337000000C014000480040060100200D01002023
:103380000701002030000020B81500203200002086
:1033900010B504460120094908702046FFF7AFFE2A
:1033A0002046FFF799FE00200449087010BD10B5B3
:1033B00004462046FFF7A3FE10BD000006010020D2
:1033C00010B50120FFF7B9FA40F2FF70FFF777FC64
:1033D000C022FE49FE48FFF7A0FC0020FFF7ADFA2F
:1033E00010BD10B5FB480078012808D001F08CFA18
:1033F000F9490968401AF9490968884208D9002042
:10340000F449087001F080FAF3490860FFF7D8FF2B
:1034100010BD2DE9F04F89B0054600262846FFF77C
:10342000B7FF287823287ED1287950287BD1687966
:10343000532878D1A879432875D1E8794B2872D1DF
:10344000287B21286FD16878303864214843A978D7
:10345000303901EB810100EB4101E8783038084454
:1034600084B2687A303864214843A97A303901EB54
:10347000810100EB4101E87A30380F1817F5FA7F27
:103480004DDBB7F5FA7F4ADC082C48DA287A2B287E
:1034900003D0287A2D2800D17F42384603F08AFED7
:1034A000CB498C31079051F8240003F083FE06903D
:1034B000CB4800EB04108168069803F0D8FF8346E0
:1034C000079903F099FD8246C1488C3040F824707A
:1034D000C449504603F09AFF02D2DFF808A306E081
:1034E000C149504603F092FE01D2DFF8FCA25046DB
:1034F00003F040FEBA4901EB04114880B84800EBE4
:103500000410C0F808A00020B54901EB0411C86000
:1035100001F0FAF9B04908600120AE49087009B01D
:10352000BDE8F08FFFE72878232846D12879502876
:1035300043D16879442840D1A87953283DD1E8790E
:1035400054283AD1287A212837D168783038642134
:103550004843A978303901EB810100EB4101E8785B
:103560003038084484B2082C0FDA00209C4901EB63
:103570000411C8609A4901EB0411886803F0FAFD50
:10358000974901EB0411488016E0FF2C14D1002468
:1035900010E00020924901EB0411C860904901EB52
:1035A0000411886803F0E6FD8D4901EB04114880A1
:1035B000601C84B2082CECDBB1E72EE1A85D232867
:1035C00013D10024701C86B208E0A85D04EB8401CE
:1035D00000EB4100303884B2701C86B2A85D002830
:1035E000EBD0A85D5028E8D0EFE7A85D50281ED1A9
:1035F0004FF00009701C86B212E0A85D03F0F2FDE6
:103600007A490790484603F035FE0690079903F083
:10361000F3FC8346764903F035FF8146701C86B281
:10362000A85D0028C9D0A85D5428C6D0E5E7A85DEC
:1036300054287DD14FF00008701C86B209E0A85DC7
:1036400008EB880100EB410030381FFA80F8701C4D
:1036500086B2A85D10B1A85D2128F0D1082C76DAD9
:103660006449484603F0D2FD71D85F49484603F0EB
:10367000CDFE6CD842F21070804568DC54498C3124
:1036800051F8240003F096FD8346494603F0B4FC4C
:1036900081465449484603F0B9FE01D2DFF844910F
:1036A0005149484603F0B2FD01D2DFF83C91B8F130
:1036B000140F11DA484603F05DFD494901EB04118E
:1036C0004880474800EB0410C0F8089000204449A7
:1036D00001EB0411C8603AE0484603F04BFD404955
:1036E00001EB041148803E4800EB0410A0F8048070
:1036F0003B4901EB0411888803F041FB00223E4B5B
:10370000CDE9000103F0B6F9CDE90401344901EB3C
:103710000411488803F066FD0190314800EB041065
:103720008168019803F0AEFE834603F039FC00E0A7
:1037300071E0CDE90201DDE9042303F09BF9CDE955
:10374000060103F065F9264901EB0411C860FF2C5E
:1037500063D100245CE01E498C3151F8241001F241
:10376000DC5003F027FD8146484603F003FD1C4969
:1037700001EB041148801A4800EB0410A0F8048003
:10378000174901EB0411888803F0F9FA00221A4B5B
:10379000CDE9000103F06EF9CDE90401104901EB18
:1037A0000411488803F01EFD01900D4800EB041041
:1037B0008168019803F066FE834603F0F1FBCDE9D2
:1037C0000201DDE9042303F055F917E000F87F005A
:1037D000B819002050000020540000207000002084
:1037E0003811002000101C450000FA430000204161
:1037F0000000404200401C4500003440CDE9060175
:1038000003F006F9FA4901EB0411C860601C84B2A8
:10381000082C02DA9FE7701C86B2A85D00287FF4AE
:10382000CDAE00BF7BE670B502460021002000232C
:1038300023E0545C542C1ED14C1C145D303C4FF4DE
:103840007A756C438D1C555D303D05EBC50606EB66
:10385000051504EB8505CC1C145D303C04EB840499
:1038600005EB44050C1D145D303C2B19834200DD33
:103870001846091D01E0491C00BF545C002CD8D13A
:1038800070BD10B504460120FFF757F84FF4806172
:10389000D84802F04EFDE1017F22D648FFF786F9B5
:1038A000D448FFF7C0FFD4490860D248FFF7B1FD04
:1038B0002246D2A1D64802F021FBD548FFF74EFDA3
:1038C0000020FFF73AF810BD10B5D2480078002864
:1038D0005CD101F019F80021CF4AD2E90032C31AB5
:1038E00061EB0201C44800680022C01A8A4150DA24
:1038F00001F00AF80021C84A03C2C848006848B16C
:10390000C748006830B90120C2490870C5A0FFF758
:1039100025FD10BDC6480068FFF7B3FFC548006825
:10392000C5490968884218DAC1480068C24909686F
:1039300088420CD1BF480068BD490860B74800689C
:1039400020B1B7480068401EB5490860E1E7B848B3
:103950000068401CB64908601BE0B5480068B649DD
:10396000096888420CD1B3480068B1490860AB4887
:10397000006820B1AA480068401EA9490860C8E74D
:10398000AB480068401EAA49086002E00A209A4934
:10399000086000BFBDE704E003788B4200D10270ED
:1039A000401C0378002BF7D170470146002215E038
:1039B0000878472811D1491C07E0087802EB8203F8
:1039C00000EB4300303882B2491C0878232802D02B
:1039D00008782428F1D110467047491C087800283F
:1039E000E6D1401EF8E7F8B5044600250120FEF7B1
:1039F000A4FF607824280CD1A078212809D10021C7
:103A00008E4880F88810FFF7DBFC8DA0FFF7A6FC3E
:103A1000F8BD6078242833D18048874B854A8DA132
:103A20000090204602F07EFB48B38248006882493D
:103A30000968884208D17F480068C10180227F4818
:103A40000830FFF7B3F811E081217C48083002F01C
:103A500092FC611C7948083002F028FC204602F0F4
:103A600049FC801E7549083100220A5425217348FB
:103A700080F88810FFF7A4FC7BA0FFF76FFCC7E776
:103A80002046FFF792FF0546681C10B1A079232855
:103A900003D07AA0FFF762FCBAE77B223C212046E4
:103AA000FFF779FF7D223E212046FFF774FFE801F2
:103AB000C11700EB11510913A0EB013131B9EE012F
:103AC000F11706EB11510813FFF7F9F8204602F041
:103AD00011FC401C86B2E90132462046FFF7CCF8C3
:103AE00067A0FFF73BFC66A0FFF761FC0020FEF734
:103AF00024FF00BF8CE72DE9FC4104460D46164625
:103B00001F4640F2DC50C11B06F2DC50CDE900013B
:103B100040F2DC50431B04F2DC525AA13C4802F054
:103B2000EDF93B48FFF734FCBDE8FC812DE9FC4191
:103B300004460D4616461F4640F2DC50C11B06F2F5
:103B4000DC50CDE9000140F2DC50431B04F2DC52B2
:103B50005CA12F4802F0D2F92D48FFF719FCBDE80F
:103B6000FC8102680B6803600A60704713B501208E
:103B7000FEF7E3FEDDE90001884203DD01A96846A6
:103B8000FFF7EFFF19E04FF480611A4802F0D1FB14
:103B90000098C10180221748FFF708F81548FFF781
:103BA000DDFB58A0FFF7DAFB1248FFF700FC55A039
:103BB000FFF7FDFB0098401C0090DDE90001884202
:103BC000E1DD0020FEF7B9FE1CBD012080F3138863
:103BD00000BF00BF4C48006800F4E0604B49084358
:103BE000001D49490860BFF34F8F00BF00BFFEE7CB
:103BF00038110020B81500205800002040446F47BD
:103C0000726F7570202564204F4B210D0A00000053
:103C1000B81100200C010020680000204C0000209A
:103C2000400000204047726F7570446F6E65210040
:103C30003C0000204400002048000020B81900206B
:103C400040434C454152205052455F434D44204F24
:103C50004B2100003C244447543A25642D25642C14
:103C60002564213E00000000405345542050524539
:103C70005F434D44204F4B210000000045000000F1
:103C8000410000007B2330303650253034645432FC
:103C900030303021233030375025303464543230C6
:103CA00030302123303038502530346454323030B5
:103CB00030212330303950253034645432303030A4
:103CC000217D00007B233030365025303464543061
:103CD0003030302123303037502530346454303088
:103CE0003030212330303850253034645430303077
:103CF0003021233030395025303464543030303066
:103D0000217D00000D0A00000CED00E00000FA0526
:103D10002DE9F14F88B0FDA1089801F094FE82468C
:103D2000BAF1000F03D0FBA0FFF718FB5FE3FEA181
:103D3000089801F088FE8246BAF1000F26D00120D3
:103D4000FB4908704FF0000B10E00020F94901EB2F
:103D50000B11C860F74901EB0B11886803F00AFAF0
:103D6000F44901EB0B1148800BF1010BBBF1080F7B
:103D7000EBDBF1A0FFF70CFB00231A4619461846AF
:103D8000FFF7D4FEFF20EF49087030E3EEA108985A
:103D900001F059FE8246BAF1000F26D007AAECA125
:103DA000089802F0BFF90028C0D00020E149079A26
:103DB00001EB0211C860DF49079A01EB0211886824
:103DC00003F0D8F9DB49079A01EB02114880E3A11F
:103DD000E648079A02F092F8E448FFF7D9FA4FF460
:103DE0008061E24802F0A5FA01E3E1A1089801F040
:103DF0002AFE8246BAF1000F01D0FFF7E6FEDEA1EF
:103E0000089801F020FE8246BAF1000F0CD005ABF5
:103E100006AADBA1089802F085F9002886D0DDE922
:103E20000510FFF7A3FEE2E2D8A1089801F00BFE0F
:103E30008246BAF1000F0DD006AAD6A1089802F06A
:103E400071F90028A1D00120B94908700698FFF740
:103E500018FDCCE2D2A1089801F0F5FD8246BAF136
:103E6000000F23D0D048D14BD14AD2A1009008985E
:103E700002F058F9002888D00120AD490870CC48DC
:103E80000068CA49096888420BD0C9480068CD4912
:103E90000860C5480068CC4908600020A449087043
:103EA000A5E2C3480068FFF7ECFCA0E2C7A10898B0
:103EB00001F0C9FD8246BAF1000F12D003A804A98F
:103EC00005AB06AACDE90010C2A1089802F02AF9B4
:103ED000002889D0DDE90332DDE90510FFF726FE71
:103EE00085E2C1A1089801F0AEFD8246BAF1000F4B
:103EF0004ED0BFA0FFF74CFA00231A4619461846C9
:103F0000FFF714FEFF208F4908704FF0000B3BE0D5
:103F1000BC4830F82B0000F2DC50864901EB0B1155
:103F200048804FF4FA60834901EB0B118880814986
:103F300001EB0B11888802F022FF06460022B24BEB
:103F400002F098FD04460D467A4901EB0B114888B2
:103F500003F048F90746774800EB0B1081683846B4
:103F600003F090FA064603F01BF822462B46CDE9F3
:103F7000000102F07FFD804602F04AFD6D4901EB31
:103F80000B11C8600BF1010BBBF1080FC0DB2EE277
:103F90009EA1089801F057FD8246BAF1000F0AD0A1
:103FA0004FF47A731A4619461846FFF7BFFD99A0D9
:103FB000FFF7EEF91BE29BA1089801F044FD824651
:103FC000BAF1000F09D0994B1A4619461846FFF767
:103FD000ADFD97A0FFF7DCF909E299A1089801F07F
:103FE00032FD8246BAF1000F0AD04FF47A735A427A
:103FF00019461046FFF79AFD93A0FFF7C9F9F6E1BD
:1040000095A1089801F01FFD8246BAF1000F09D072
:10401000864B5A4219461046FFF788FD90A0FFF7DD
:10402000B7F9E4E192A1089801F00DFD8246BAF1DA
:10403000000F09D07D4B5A4211461846FFF776FD16
:104040008DA0FFF7A5F9D2E18FA1089801F0FBFC44
:104050008246BAF1000F0AD04FF47A735A421146E1
:104060001846FFF763FD8AA0FFF792F9BFE18CA124
:10407000089801F0E8FC8246BAF1000F0CD000234A
:104080001A4619461846FFF751FD87A0FFF780F939
:10409000FF202C490870AAE188A1089801F0D3FC00
:1040A0008246BAF1000F0AD04FF47A731A461946C5
:1040B0001846FFF720FD57A0FFF76AF997E181A1A5
:1040C000089801F0C0FC8246BAF1000F09D0574BA6
:1040D0001A4619461846FFF70EFD55A0FFF758F986
:1040E00085E17AA1089801F0AEFC8246BAF1000F92
:1040F0000AD04FF47A735A4219461046FFF7FBFC78
:1041000051A0FFF745F972E1E4E000002444525366
:104110002100000048656C6C6F2052542D74687249
:104120006561642100000000244453542100000014
:104130000C010020381100202332353550445354EF
:104140002100000008010020244453543A000000DC
:10415000244453543A2564210000000023253033C1
:104160006450445354210D0A00000000B81100208F
:104170002452535421000000245054473A000000B8
:10418000245054473A25642D256421002444475384
:104190003A000000244447533A25642100000000FF
:1041A000244447543A0000004C00002048000020FE
:1041B00044000020244447543A25642D25642C25CE
:1041C000642100003C0000204000002024444352B1
:1041D0003A000000244443523A25642C25642C25DF
:1041E000642C25642100000024444A522100000070
:1041F0002332353550313530305432303030210DA6
:104200000A000000441A00200000344024514A21D2
:10421000000000002330313050313530325430301E
:1042200030302100244854210000000018FCFFFF1A
:10423000233031305031353033543030303021007C
:10424000245A5A21000000002330313050313530DB
:10425000345430303030210024595A2100000000FD
:10426000233031305031353035543030303021004A
:10427000245A50592100000023303130503135305C
:10428000365430303030210024595059210000007C
:104290002330313050313530375430303030210018
:1042A00024545A2100000000233031305031353081
:1042B00031335430303030210000000024514A3175
:1042C000210000002448543121000000245A5A31B2
:1042D00021000000FCA1089801F0B5FB8246BAF16C
:1042E000000F0AD0FA4B5A4219461046FFF703FC5A
:1042F000AFF29400FFF74CF879E0F6A1089801F0CE
:10430000A2FB8246BAF1000F0AD0F14B5A42114685
:104310001846FFF7F0FBAFF2A000FFF739F866E0B0
:10432000EEA1089801F08FFB8246BAF1000F0BD086
:104330004FF47A735A4211461846FFF7DCFBAFF28E
:10434000B000FFF725F852E0E6A1089801F07BFBEA
:104350008246BAF1000F03D0E4A0FEF7FFFF46E06B
:10436000E3A1089801F06FFB8246BAF1000F19D063
:1043700002AB06AAE0A1E44801F0D4FEB8B3E349D9
:1043800006980870BDF80800E14908800120E1495D
:104390000870E1A1DC48069A01F0B0FDDA48FEF7AA
:1043A000DDFF24E0DFA1089801F04DFB8246BAF161
:1043B000000F1CD0FF20D54908700A2001F01FFB18
:1043C000AFF28C20FFF725F80A2001F018FBD9A0E6
:1043D000FEF7C4FF0A2001F012FBDEA0FEF7BEFFCD
:1043E0000A2001F00CFB6421012001F088FC09B0D7
:1043F000BDE8F08F10B5D948007848B3D8480078A8
:10440000012803D1C048FFF783FC16E0D4480078A8
:10441000022803D1BC48FEF7FCFF0EE0D04800782C
:10442000032803D1B848FEF7F4FF06E0CC48007833
:10443000042802D1B448FFF7D6FA0020C849087012
:10444000C6490870012240F22551C648FCF791FC8C
:1044500010BD10B500F058FAC3490968401AB0F50C
:104460007A7F14D900F050FABF490860BF4800783D
:1044700020B100210D2001F05FFB03E001210D20A0
:1044800001F05AFBB9480078C043B849087010BD24
:1044900062B6704710B50221052001F04DFB0021E6
:1044A0000D2001F049FB642001F0A9FA002105204C
:1044B00001F042FB01210D2001F03EFB642001F0E0
:1044C0009EFA0221052001F037FB00210D2001F0AA
:1044D00033FB642001F093FA0021052001F02CFB4E
:1044E00001210D2001F028FB642001F088FA02214F
:1044F000052001F021FB00210D2001F01DFB6420AF
:1045000001F07DFA0021052001F016FB01210D20AC
:1045100001F012FB642001F072FA4FF47A7001F09E
:104520006EFA93A0FEF734FF10BD10B5472144F694
:10453000206000F020FA10BD10B5002090490860FE
:1045400026E090488E49096830F8210000F2DC50DE
:104550008D498B4A126801EB021148808A49884ACA
:10456000126801EB0211488802F03CFE8649844A39
:10457000126801EB0211886000208349804A1268AA
:1045800001EB0211C8607E480068401C7C4908604D
:104590007B4800680828D4DB7A488C3890F888007B
:1045A000252833D177498439574801F07FFE754873
:1045B0008C38007A242804D172488438FFF7A8FB8D
:1045C00024E010206E49086016E030214E486C4A05
:1045D0001268815402466A480068401C11546848B9
:1045E0000068801C115466480068C01C115464485F
:1045F00000680F3062490860434801F07BFE604963
:1046000009688842E1D84048FEF703FF10BD10B5A5
:104610004FF4E130FEF710FD012240F225515148E0
:10462000FCF7A7FB59A0FEF7C2FE10BD10B54FF472
:10463000E130FEF79FFC012240F225515748FCF77C
:1046400098FB57A0FEF78AFE10BD10B500F046F9A2
:1046500010BD10B50120FEF770F9FEF7B2F9C022C7
:10466000534948488C38FEF7A1FA46488C38006810
:1046700040F2E471884205D0084642498C3908600E
:10468000002048603F488C38D0F8AC00252817D06F
:1046900000203B4908600AE000213A48384A126885
:1046A00040F8221036480068401C354908603448FC
:1046B00000680828F0DB252132488C38C0F8AC109F
:1046C00000202F4908609EE024595A312100000043
:1046D00018FCFFFF245A5059312100002459505929
:1046E000312100002447455441210000414141004F
:1046F00024534D4F4445000024534D4F44452564F9
:104700002D25642100000000B815002008010020BC
:104710000A0100200E0100206D6F6465203D2025F8
:10472000640A000024534D4152545F53544F5021AA
:1047300000000000233030365031353030543030F6
:104740003030212330303750313530305430303034
:1047500030210000404F4B210000000006010020E6
:1047600007010020004800405C000020600000209D
:104770002330313050313530315430303030210039
:1047800038000020441A002038110020756172742E
:104790003320636865636B206F6B21000038014034
:1047A000756172743120636865636B206F6B2100E3
:1047B00000F87F0040484149096830F8210000F2C4
:1047C000DC5081B23E483D4A126800EB0210418045
:1047D00039493A4A126851F8221001F2DC5002F0CD
:1047E000E9FC3749354A126801EB02118860002064
:1047F0003349324A126801EB0211C8602F48006841
:10480000401C2E4908602D4800680828D2DB002093
:10481000FEF793F810BD10B501F009FA10BD10B500
:1048200001F0AFF90021052001F086F910BD10B5A7
:1048300001F06EF901210D2001F07EF910BD10B5D7
:1048400001F05CF910BD10B501F0E6F810BD10B52F
:1048500001F076FA10BDFFF7FAFFFFF7F4FFFFF75C
:10486000EEFFFFF7E4FFFFF7DAFFFFF7D4FFFFF7F4
:10487000F0FEFFF7EAFEFFF7D9FEFFF7C8FEFFF7ED
:104880005BFEFFF752FEFFF705FEFFF701FE00F0AB
:104890006EFC01F085FA09E0FFF7DBFDFFF7AAFDEA
:1048A000FFF712F800F09FFDFEF79BFDF4E710B54F
:1048B000FEF70BF810BD0000441A0020380000205D
:1048C0003811002010B504460021204602F09EFD5C
:1048D00001D2204610BD84F00040FBE700204FF0DD
:1048E000E0218861FB4848610846006940F0070004
:1048F0000861704700204FF0E0218861F6480068A9
:10490000401CF54908607047F348006870477FB560
:1049100004460D460121C802FCF77EF8ADF80840B8
:10492000681E80B2ADF804000020ADF80A00ADF8B2
:1049300006008DF80C0001A9E848FCF717FC0121DE
:10494000E648FDF735FA01224121E448FCF785FFEE
:1049500019208DF8000000208DF801008DF802006C
:1049600001208DF803006846FCF7BFF80121DB4801
:10497000FCF758FF7FBD7FB505460C460121084670
:10498000FCF757F8ADF80850ADF804400020ADF83A
:104990000A00ADF8060001A94FF08040FCF7E6FBE5
:1049A00000214FF08040FDF73DF8012211469007AD
:1049B000FCF753FF1C208DF8000001208DF801004A
:1049C00002208DF8020001208DF803006846FCF7F4
:1049D0008CF801218807FCF725FF7FBD7FB50546D0
:1049E0000C4601210220FCF724F8ADF80850ADF880
:1049F00004400020ADF80A00ADF8060001A9B8484F
:104A0000FCF7B4FB0021B648FDF70CF80122114673
:104A1000B348FCF722FF1D208DF8000003208DF81D
:104A2000010001208DF802008DF803006846FCF7B4
:104A30005CF80121AA48FCF7F5FE7FBD30B589B0CE
:104A400005460C4601210220FBF7F3FF0121082057
:104A5000FBF7E2FF0320ADF8200018208DF82300BB
:104A600003208DF8220008A99E48FBF719FDADF838
:104A70001850ADF814400020ADF81A00ADF816003B
:104A800005A99748FCF772FB6020ADF804000120EF
:104A9000ADF806000020ADF80C004FF4FA70ADF848
:104AA0000A0001A98E48FCF72DFC08218C48FCF770
:104AB000FFFF01A98A48FCF770FC08218848FDF730
:104AC00000F801218648FCF7ADFE09B030BD30B5D5
:104AD00089B005460C4601210420FBF7AAFF0121FD
:104AE0000820FBF799FF4FF44070ADF82000182024
:104AF0008DF8230003208DF8220008A97948FBF7E0
:104B0000CFFCADF81850ADF814400020ADF81A00F5
:104B1000ADF8160005A97448FCF728FB6020ADF835
:104B200004000120ADF806000020ADF80C004FF4A1
:104B3000FA70ADF80A0001A96B48FCF7E3FB082105
:104B40006948FCF7B5FF01A96748FCF726FC082176
:104B50006548FCF7B6FF01216348FCF763FE09B026
:104B600030BD10B504460021204602F04FFC01D2B2
:104B7000204610BD84F00040FBE72DE9F0470446D5
:104B80005A4901EB0411C868002102F0A3FA4AD087
:104B9000564800EB0410458840F6BA10854201DD06
:104BA000054604E0B5F5FA7F01DA4FF4FA754F4A8D
:104BB00002EB0412D1684D4A02EB0412D06802F0F5
:104BC0001BFA8046FFF7CDFF0646284602F0F2FAB0
:104BD0008146464800EB04108168484602F052FCCA
:104BE0008046FFF7BEFF0746314602F00FFB0CD8A8
:104BF000284602F0DFFA3D4901EB041188600020ED
:104C00003A4901EB0411C8600DE0384A02EB041286
:104C1000D168364A02EB0412906802F0EDF933498C
:104C200001EB04118860BDE8F08710B50121880709
:104C3000FDF7C1F8002841D001218807FDF7CCF825
:104C40002B480078082802D10020294908702948FB
:104C50000078A0B92549264A127801EB021188682C
:104C600002F088FA4FF080418885012120480078C1
:104C700000F0FFFF1E480078FFF77FFF16E01B499A
:104C80001B4A127801EB0211886802F073FA40F6B1
:104C9000C4110C1A09078C8500211548007800F012
:104CA000E8FF13480078401C11490870114800784B
:104CB00008B9012000E000200E49087010BD10B5B1
:104CC00001210748FDF777F818B101210448FDF7E5
:104CD00083F810BD4019010074000020002C014031
:104CE00000040040000C0140000800403811002082
:104CF000800000207F00002030B589B005460C46BA
:104D0000012140F60400FBF787FE4FF48070ADF8F8
:104D1000040048208DF8070003208DF8060001A943
:104D2000F348FBF7BDFB1B208DF8080000208DF831
:104D3000090001208DF80A008DF80B0002A8FBF78E
:104D4000D4FE19208DF8080000208DF809008DF898
:104D50000A0001208DF80B0002A8FBF7C6FEADF893
:104D60001050ADF80C400020ADF81200ADF80E0068
:104D700003A9E048FCF7FAF90020ADF8180002207A
:104D8000ADF81A000020ADF81E000120ADF81C009F
:104D90000020ADF8200006A9D648FCF77AFC0121D6
:104DA000D448FDF705F80221D248FDF701F80122A9
:104DB0000221D048FCF751FD0121CE48FCF732FD1D
:104DC00009B030BD10B50121CA48FCF7F4FF012835
:104DD00025D10121C748FCF7EBFFC748007802281E
:104DE00005DAC5480078401CC349087017E0C3487D
:104DF00000781F2813DD0020C1490870C1490870E0
:104E0000C1490870C1490870C1490870BA490870A1
:104E1000BA49087000220121B648FCF71EFD10BDFA
:104E200010B50221B348FCF7C6FF012815D10221B5
:104E3000B048FCF7BDFFB3480078002853D1B04814
:104E4000007858B90021AB48FCF780FF0021A94841
:104E5000FCF79AFE0120AA49087048E1A8480078AA
:104E600001281FD1A348FCF787FFAA490880002129
:104E7000A048FCF76BFF02219E48FCF785FEA54881
:104E80000088B0F5FA5F09DDA248008842F210718F
:104E9000884203DA02209A49087028E100209849E4
:104EA000087024E1964800780228D6D19148FCF792
:104EB00063FF9949088000218E48FCF747FF964818
:104EC000008840F6AC51884209DD9348008841F2E1
:104ED0007C51884203DA01208A49087007E10020EA
:104EE0008749087003E185480078202852DA814814
:104EF000FCF742FF8949088000217E48FCF726FF25
:104F000086480088B0F57A7F0CDA84480088B0F5CE
:104F1000166F07DD00207A4908707A4908707749D2
:104F20000870E4E07E48006840007D4908607B48E6
:104F3000008840F2A461884205DD7948006840F0AD
:104F40000100774908606D480078401C6B49087083
:104F5000084600782028A0D171480068000E7149E9
:104F600008706F480068000C48706D480088000A9F
:104F700088706B480078C87008468078C978084403
:104F8000FF288AD000205E4908705E4908705B499E
:104F90000870ACE05C480078B0B95648FCF7ECFE0D
:104FA0005C49088000215348FCF7D0FE002151489D
:104FB000FCF7EAFD01205C49087000204E490870AA
:104FC00001205149087073E04F480078012822D130
:104FD0004848FCF7D1FE4F49088000214548FCF7BE
:104FE000B5FE02214348FCF7CFFD4A480088B0F5E2
:104FF000FA5F09DD4748008842F21071884203DAFF
:1050000002204149087053E000203F490870012008
:105010003F4908704CE03C480078022822D13548CE
:10502000FCF7AAFE3C49088000213248FCF78EFEBE
:105030003948008840F2A46188420CDD3648008877
:10504000B0F5166F07DA00212A48FCF79DFD032012
:105050002D4908702CE000202B49087001202C49B4
:10506000087025E028480078032821D12148FCF762
:1050700083FE2849088000211E48FCF767FE0221B4
:105080001C48FCF781FD23480088B0F5FA7F09DD54
:105090002048008840F28A21884203DA01201B4917
:1050A000087002E001201A490870002016490870B3
:1050B0001648007848B10020144908700E4908705D
:1050C000012211460B48FCF7C8FB1148007870B16B
:1050D00000200B4908700B4908700B4908700B49F8
:1050E00008700B490870044908700449087010BD25
:1050F00000080140002C01407D0000207E000020BF
:1051000078000020790000207A0000207B00002039
:105110007C000020880000208A0000208C000020F5
:1051200084000020D0000020D400002008B5012118
:105130000C20FBF771FC0120ADF8000010208DF869
:10514000030003208DF802006946F748FBF7A8F931
:105150000420ADF800008DF803006946F348FBF722
:105160009FF9472147F23050FFF738FC08BD10B5D2
:10517000FFF7DCFF10BD002107E0002201E0531C17
:105180009AB2092AFBDB4B1C99B28142F5DB7047CE
:105190002DE9F0410121002000F0CEFC1420FFF7A2
:1051A000EAFF0021084600F0C7FC00BF0421DF48E9
:1051B000FBF709FA0028F9D00021DD48FCF7C6FD0D
:1051C0000121DB48FCF72EFB00BF0421D748FBF789
:1051D000FAF90128F9D00021D548FCF723FBD4487F
:1051E000FCF7D7FD044646F2A81084420EDA2046AA
:1051F00001F0C5FD0546CF4ACF4B01F0D3FD074670
:1052000001F090FD84B22046BDE8F0810020FBE76C
:1052100070B500240CE0FFF7BBFF054601F0E2FF8C
:10522000C64941F82400052000F0E9FB601CC4B227
:10523000052CF0DB0521C14800F02AFCBF4880683E
:10524000BF4908600846006801F078FF70BD10B5DE
:10525000FFF75AFBBB490968401AB0F57A7F3FD97E
:10526000B9480078012838D10020B84908700023D7
:105270001A4619461846FEF759FCFFF745FBB14997
:105280000860B348FEF793F8B148FEF767F8642169
:10529000012000F034FDAF480078401CAD49087093
:1052A0000B20AD49087011E0AB480278ABA1AE48C5
:1052B00000F024FEAC48FEF72BFD4FF47A7000F0AE
:1052C0009EFBA5480078401CA3490870A2480078BE
:1052D0001428E9DB01209D49087000209A490870D4
:1052E00010BD10B5FFF710FBA0490968401AB0F5D2
:1052F0007A7F3FD994480078012838D1002093491B
:10530000087000231A4619461846FEF70FFCFFF7EF
:10531000FBFA964908608E48FEF749F88C48FEF77C
:105320001DF86421012000F0EAFC8A480078401C46
:105330008849087005208E49087011E08C48027871
:1053400086A1894800F0DAFD8748FEF7E1FC4FF4BA
:105350007A7000F054FB86480078401C844908703D
:10536000834800780B28E9DB012078490870002089
:105370007549087010BD70B54FF4FA757D48007816
:1053800000282FD1FFF7C0FA7B490968401A64282A
:1053900028D9FFF7B9FA78490860FFF739FF0446C2
:1053A000224676A16A4800F0A9FD6948FDF7D6FFBC
:1053B000142C17DA00206549087000231A46194694
:1053C0001846FEF7B3FB71A1614800F097FD6048F5
:1053D000FDF7DEFF67480078401C66490870012031
:1053E0005A49087070BD2DE9F041FFF7C4FF6848C5
:1053F0000078F0B901206749087011E0654802782B
:1054000056A1594800F07AFD5748FEF781FC4FF449
:10541000FA7000F0F4FA5F480078401C5D490870AB
:105420005C4800780328E9DB59480078401C58495B
:10543000087059480078012874D1FFF765FA574978
:105440000968401A64286CD9FFF75EFA534908606E
:1054500053480088B42806DC5148008801F0C2FE99
:10546000504908600BE04E480088B42807DD4C49DD
:105470000988A1F5B47001F09DFE4A4908604948C9
:105480000168494800F0F2FC484908600846016894
:10549000474801F0B1FD4749086044480168444865
:1054A00001F0F0FF4449086044494248006801F0B7
:1054B000ADFF02D241483F49086041493D4800687C
:1054C00001F0A4FE02D23E483A4908603B493A48FE
:1054D000006801F09BFF02D238483749086038491C
:1054E0003548006801F092FE02D235483249086022
:1054F0003048006801F022FE04462F48006801F0A1
:105500001DFE05462B48006801F018FE06462A4895
:10551000006801F013FE074623462A463146FEF78F
:1055200005FB05E24EE00000000C014000080140D0
:10553000000400409CC420B07268913F24110020F8
:10554000D8000020000100200E0100200D010020E5
:10555000B8150020D5000020040100202444475342
:105560003A25642100000000B8110020F800002056
:10557000FC000020F2000020F40000206164635F62
:10558000637362203D2025640D0A0000412600005F
:10559000E4000020E500002008010020E0000020D9
:1055A0000A010020C4000020781A00209400002086
:1055B0000000AF43980000209C0000200000C8437A
:1055C00000009643E348007802287CD1FFF79CF95D
:1055D000E1490968401A6428A3D9FFF795F9DE4923
:1055E0000860DE480088B42806DCDC48008801F04A
:1055F000F9FDDB4908600BE0D8480088B42807DDD6
:10560000D6490988A1F5B47001F0D4FDD4490860E9
:10561000FFF7FEFDD34908704FF08041D048006885
:1056200001F0F4FD0DD24FF04041CD48006801F08B
:10563000EDFE06D200231A4619461846FEF776FA02
:1056400047E0C7480168C84800F010FCC749086037
:1056500008460068C6490860C448006880F00040F9
:10566000C4490860C449C248006801F0CFFE02D2B4
:10567000C148BF490860C049BE48006801F0C6FE85
:1056800002D2BD48BB490860B948006801F056FD28
:105690000446B848006801F051FD0546B44800686A
:1056A00001F04CFD0646B348006801F047FD07468F
:1056B00023462A463146FEF739FAAA480278AFF265
:1056C0004411AE4800E03FE000F018FCAB48FDF7A5
:1056D00045FEA4480078052806DDC8231A46194669
:1056E0001846FEF723FA23E19E480078032807DADC
:1056F0006FF0C7031A4619461846FEF717FA17E166
:10570000984800780428EED19DA19C4800F0F6FB53
:105710009A48FDF73DFE9B4800780128E3D19AA006
:10572000FEF7F6FA4FF4FA7000F069F998A0FEF768
:10573000EFFA4FF4FA7000F062F997A0FEF7E8FA7A
:10574000002090490870F3E08248007805284BD18A
:105750009348007804280FD092A1884800F0CEFB2F
:105760008648FDF715FEFFF7BCFD85A1834800F0D4
:10577000C5FB8248FDF70CFE894800780428B2D1A9
:10578000FFF7C2F874490968401A64280AD9FFF77C
:10579000BBF87149086084A1784800F0AFFB7748F6
:1057A000FDF7F6FD8148007801289CD180490870FA
:1057B00012E07F480278AFF25C217E4800F09EFB49
:1057C0007C48FEF7A5FA4FF4487000F018F97848C5
:1057D0000078401C76490870754800780328E8DB9B
:1057E000002072490870A3E05A48007806284BD17F
:1057F0006B48007804280FD06AA1604800F07EFB57
:105800005E48FDF7C5FDFFF722FD5DA15B4800F096
:1058100075FB5A48FDF7BCFD61480078042892D119
:10582000FFF772F84C490968401A64280AD9FFF753
:105830006BF8494908605CA1504800F05FFB4F4895
:10584000FDF7A6FD59480078012871D15849087024
:1058500012E057480278AFF2FC21564800F04EFBA8
:105860005448FEF755FA4FF4487000F0C8F8504815
:105870000078401C4E4908704D4800780328E8DB4A
:1058800000204A49087053E032480078072845D183
:10589000FFF73AF830490968401A642806D9FFF73B
:1058A00033F82D4908603CA0FEF732FA3C480078F6
:1058B00004283DD1FFF728F827490968401A6428D1
:1058C0000AD9FFF721F82449086037A12B4800F0D6
:1058D00015FB2A48FDF75CFD34480078012827D1E4
:1058E0003349087012E032480278AFF29031314803
:1058F00000F004FB2F48FEF70BFA4FF4487000F05D
:105900007EF82B480078401C294908702848007808
:105910000328E8DB00202549087009E00D480078DD
:10592000082805D1244B1A4619461846FEF7E3F815
:105930002248007807490978884209D0054800784C
:105940001E49087000201E49087001201D4908707A
:10595000BDE8F08108010020E00000200A010020DD
:10596000C4000020E7000020B81A0020AC0000208E
:10597000B0000020B400002000001643B81500203D
:1059800042260000F0000020244447533A31210011
:10599000244447533A302100244447533A352100E8
:1059A000D50000204326000044260000F10000201E
:1059B000E5000020B81100200CFEFFFFDC000020F5
:1059C000900000200C010020704700BF011EA0F1D4
:1059D000010290B2FAD1704700BF011EA0F101028E
:1059E00090B2FAD1704700B5034602E00620FFF7F7
:1059F000ECFF181EA3F101018BB2F7D100BD10B569
:105A0000044603E04FF47A70FFF7EDFF201EA4F187
:105A100001018CB2F6D110BD002011E040F2DC5142
:105A2000344A02EB001251803349324A02EB001231
:105A3000916000212F4A02EB0012D160411CC8B2D4
:105A40000828EBDB704770B504460B4621461A4622
:105A500019E008781578A84214D10AE011F8015B22
:105A600012F8016BB54204D0D01A081A411C1A462C
:105A700002E010780028F1D100BF107818B9081B97
:105A800080B270BD491C08780028E2D100BFF8E759
:105A90002DE9F0470446884600251EE02E466F1C7F
:105AA00008E054F8271054F8260001F0AFFC00D2AB
:105AB0003E467F1C4745F4DBAE420DD054F826002D
:105AC00001F03CFB814654F8250044F82600484686
:105AD00001F070FB44F825006D1CA8F10100A842FC
